{"abi":[{"type":"constructor","inputs":[],"stateMutability":"nonpayable"},{"type":"function","name":"depositCount","inputs":[],"outputs":[{"name":"","type":"uint256","internalType":"uint256"}],"stateMutability":"view"},{"type":"function","name":"getDepositRoot","inputs":[],"outputs":[{"name":"","type":"bytes32","internalType":"bytes32"}],"stateMutability":"view"},{"type":"function","name":"getLeafValue","inputs":[{"name":"leafType","type":"uint8","internalType":"uint8"},{"name":"originNetwork","type":"uint32","internalType":"uint32"},{"name":"originAddress","type":"address","internalType":"address"},{"name":"destinationNetwork","type":"uint32","internalType":"uint32"},{"name":"destinationAddress","type":"address","internalType":"address"},{"name":"amount","type":"uint256","internalType":"uint256"},{"name":"metadataHash","type":"bytes32","internalType":"bytes32"}],"outputs":[{"name":"","type":"bytes32","internalType":"bytes32"}],"stateMutability":"pure"},{"type":"function","name":"verifyMerkleProof","inputs":[{"name":"leafHash","type":"bytes32","internalType":"bytes32"},{"name":"smtProof","type":"bytes32[32]","internalType":"bytes32[32]"},{"name":"index","type":"uint32","internalType":"uint32"},{"name":"root","type":"bytes32","internalType":"bytes32"}],"outputs":[{"name":"","type":"bool","internalType":"bool"}],"stateMutability":"pure"},{"type":"event","name":"Initialized","inputs":[{"name":"version","type":"uint8","indexed":false,"internalType":"uint8"}],"anonymous":false},{"type":"error","name":"MerkleTreeFull","inputs":[]}],"bytecode":{"object":"0x604060808152346100ad5760006033908082556001918291825b61002c575b845161038d90816100b38239f35b6020808410156100a757855190810182815281870192909252858152606081016001600160401b038111828210176100915786525190208083830155600019831461007b578380930192610019565b634e487b7160e01b600052601160045260246000fd5b634e487b7160e01b600052604160045260246000fd5b5061001e565b600080fdfe6080604090808252600436101561001557600080fd5b600090813560e01c9081632dfdf0b5146102bc575080633ae050471461020c5780633e197043146101075763fb5708341461004f57600080fd5b34610100576104603660031901126101005761042436811161010357359063ffffffff8216809203610100576004355b6020808310156100f157906100c99160018086861c16146000146100cf576100a68461032f565b35918651918201928352868201528581526100c0816102fd565b519020916102d8565b9061007f565b6100d88461032f565b358651918201928352868201528581526100c0816102fd565b60208286519061044435148152f35b80fd5b5080fd5b50346101005760e03660031901126101005760043560ff811681036101035763ffffffff602435818116810361020857604435906001600160a01b0390818316830361020457606435938416840361020457608435918216820361020457865193602085019560ff60f81b9060f81b16865263ffffffff60e01b809260e01b1660218601526bffffffffffffffffffffffff19809460601b16602586015260e01b16603984015260601b16603d82015260a435605182015260c43560718201526071815260a081019281841067ffffffffffffffff8511176101f0575082602094525190208152f35b634e487b7160e01b81526041600452602490fd5b8580fd5b8380fd5b5090346101035781600319360112610103578160535492815b602091828410156102b2579061028a9160018088871c16146000146102905784603301549086519085820192835287820152868152610263816102fd565b519020925b85519081019180835286820152858152610281816102fd565b519020926102d8565b91610225565b855184810191825282878201528681526102a9816102fd565b51902092610268565b6020908551908152f35b9050346101035781600319360112610103576020906053548152f35b60001981146102e75760010190565b634e487b7160e01b600052601160045260246000fd5b6060810190811067ffffffffffffffff82111761031957604052565b634e487b7160e01b600052604160045260246000fd5b60208110156103415760051b60240190565b634e487b7160e01b600052603260045260246000fdfea2646970667358221220a2e1f43924931e6ce94044e04c5705f35acef350f395f153ad7a0ef34208701c64736f6c63430008150033","linkReferences":{}},"methodIdentifiers":{"depositCount()":"2dfdf0b5","getDepositRoot()":"3ae05047","getLeafValue(uint8,uint32,address,uint32,address,uint256,bytes32)":"3e197043","verifyMerkleProof(bytes32,bytes32[32],uint32,bytes32)":"fb570834"},"id":55}