{"abi":[{"type":"constructor","inputs":[{"name":"_owner","type":"address","internalType":"address"}],"stateMutability":"nonpayable"},{"type":"function","name":"deployDeterministic","inputs":[{"name":"amount","type":"uint256","internalType":"uint256"},{"name":"salt","type":"bytes32","internalType":"bytes32"},{"name":"initBytecode","type":"bytes","internalType":"bytes"}],"outputs":[],"stateMutability":"payable"},{"type":"function","name":"deployDeterministicAndCall","inputs":[{"name":"amount","type":"uint256","internalType":"uint256"},{"name":"salt","type":"bytes32","internalType":"bytes32"},{"name":"initBytecode","type":"bytes","internalType":"bytes"},{"name":"dataCall","type":"bytes","internalType":"bytes"}],"outputs":[],"stateMutability":"payable"},{"type":"function","name":"functionCall","inputs":[{"name":"targetAddress","type":"address","internalType":"address"},{"name":"dataCall","type":"bytes","internalType":"bytes"},{"name":"amount","type":"uint256","internalType":"uint256"}],"outputs":[],"stateMutability":"payable"},{"type":"function","name":"owner","inputs":[],"outputs":[{"name":"","type":"address","internalType":"address"}],"stateMutability":"view"},{"type":"function","name":"predictDeterministicAddress","inputs":[{"name":"salt","type":"bytes32","internalType":"bytes32"},{"name":"bytecodeHash","type":"bytes32","internalType":"bytes32"}],"outputs":[{"name":"","type":"address","internalType":"address"}],"stateMutability":"view"},{"type":"function","name":"renounceOwnership","inputs":[],"outputs":[],"stateMutability":"nonpayable"},{"type":"function","name":"transferOwnership","inputs":[{"name":"newOwner","type":"address","internalType":"address"}],"outputs":[],"stateMutability":"nonpayable"},{"type":"event","name":"FunctionCall","inputs":[],"anonymous":false},{"type":"event","name":"NewDeterministicDeployment","inputs":[{"name":"newContractAddress","type":"address","indexed":false,"internalType":"address"}],"anonymous":false},{"type":"event","name":"OwnershipTransferred","inputs":[{"name":"previousOwner","type":"address","indexed":true,"internalType":"address"},{"name":"newOwner","type":"address","indexed":true,"internalType":"address"}],"anonymous":false}],"bytecode":{"object":"0x60803461007057601f6108ef38819003918201601f19168301916001600160401b038311848410176100755780849260209460405283398101031261007057516001600160a01b0381168103610070576100619061005c3361008b565b61008b565b60405161081c90816100d38239f35b600080fd5b634e487b7160e01b600052604160045260246000fd5b600080546001600160a01b039283166001600160a01b03198216811783559216907f8be0079c531659141344cd1fd0a4f28419497f9722a3daafe3b4186f6b6457e09080a356fe6040608081526004908136101561001557600080fd5b600091823560e01c80632b79805a146103ed5780634a94d4871461027d5780636d07dbf81461023a578063715018a6146101dd5780638da5cb5b146101b1578063e11ae6cb146101335763f2fde38b1461006e57600080fd5b3461012f57602036600319011261012f576100876105ab565b906100906105c1565b6001600160a01b039182169283156100dd57505082546001600160a01b0319811683178455167f8be0079c531659141344cd1fd0a4f28419497f9722a3daafe3b4186f6b6457e08380a380f35b906020608492519162461bcd60e51b8352820152602660248201527f4f776e61626c653a206e6577206f776e657220697320746865207a65726f206160448201526564647265737360d01b6064820152fd5b8280fd5b50606036600319011261012f576044359167ffffffffffffffff83116101ad5761019a6020926101877fba82f25fed02cd2a23d9f5d11c2ef588d22af5437cbf23bfe61d87257c480e4c9536908301610569565b906101906105c1565b6024359035610619565b90516001600160a01b039091168152a180f35b8380fd5b5050346101d957816003193601126101d957905490516001600160a01b039091168152602090f35b5080fd5b83346102375780600319360112610237576101f66105c1565b80546001600160a01b03198116825581906001600160a01b03167f8be0079c531659141344cd1fd0a4f28419497f9722a3daafe3b4186f6b6457e08280a380f35b80fd5b509134610237578160031936011261023757506055600b6020938351906024358583015235858201523081520160ff81532090516001600160a01b039091168152f35b50829060603660031901126101d9576102946105ab565b67ffffffffffffffff916024358381116103e9576102b59036908301610569565b90604435906102c26105c1565b86519460608601908111868210176103d6578752602985527f416464726573733a206c6f772d6c6576656c2063616c6c20776974682076616c6020860152681d594819985a5b195960ba1b87860152814710610384575084828192602061035497969551920190855af13d1561037c573d916103456103408461054d565b610511565b9283523d86602085013e610712565b507f25adb19089b6a549831a273acdf7908cff8b7ee5f551f8d1d37996cf01c5df5b8180a180f35b606091610712565b608490602088519162461bcd60e51b8352820152602660248201527f416464726573733a20696e73756666696369656e742062616c616e636520666f6044820152651c8818d85b1b60d21b6064820152fd5b634e487b7160e01b875260418252602487fd5b8480fd5b50919060803660031901126101d95767ffffffffffffffff906044358281116101ad5761041d9036908601610569565b916064358181116103e95761043861044b9136908801610569565b936104416105c1565b6024358735610619565b9282519183830190838210908211176104fe577fba82f25fed02cd2a23d9f5d11c2ef588d22af5437cbf23bfe61d87257c480e4c9492868086946104e39460209852601e84527f416464726573733a206c6f772d6c6576656c2063616c6c206661696c6564000088850152878151910182885af13d156104f6573d906104d36103408361054d565b9182523d898884013e5b85610712565b50516001600160a01b039091168152a180f35b6060906104dd565b634e487b7160e01b865260418752602486fd5b6040519190601f01601f1916820167ffffffffffffffff81118382101761053757604052565b634e487b7160e01b600052604160045260246000fd5b67ffffffffffffffff811161053757601f01601f191660200190565b81601f820112156105a6578035906105836103408361054d565b92828452602083830101116105a657816000926020809301838601378301015290565b600080fd5b600435906001600160a01b03821682036105a657565b6000546001600160a01b031633036105d557565b606460405162461bcd60e51b815260206004820152602060248201527f4f776e61626c653a2063616c6c6572206973206e6f7420746865206f776e65726044820152fd5b9190918047106106cd578151156106895760208251920190f5906001600160a01b0382161561064457565b60405162461bcd60e51b815260206004820152601960248201527f437265617465323a204661696c6564206f6e206465706c6f79000000000000006044820152606490fd5b606460405162461bcd60e51b815260206004820152602060248201527f437265617465323a2062797465636f6465206c656e677468206973207a65726f6044820152fd5b60405162461bcd60e51b815260206004820152601d60248201527f437265617465323a20696e73756666696369656e742062616c616e63650000006044820152606490fd5b919290156107745750815115610726575090565b3b1561072f5790565b60405162461bcd60e51b815260206004820152601d60248201527f416464726573733a2063616c6c20746f206e6f6e2d636f6e74726163740000006044820152606490fd5b8251909150156107875750805190602001fd5b6040519062461bcd60e51b82528160208060048301528251908160248401526000935b8285106107cd575050604492506000838284010152601f80199101168101030190fd5b84810182015186860160440152938101938593506107aa56fea2646970667358221220c1a83487848081cee2d20039bfa3eacd7f7c3dd89d7099c12cb7c81524a96bc264736f6c63430008150033","linkReferences":{}},"methodIdentifiers":{"deployDeterministic(uint256,bytes32,bytes)":"e11ae6cb","deployDeterministicAndCall(uint256,bytes32,bytes,bytes)":"2b79805a","functionCall(address,bytes,uint256)":"4a94d487","owner()":"8da5cb5b","predictDeterministicAddress(bytes32,bytes32)":"6d07dbf8","renounceOwnership()":"715018a6","transferOwnership(address)":"f2fde38b"},"id":50}