{"abi":[{"type":"constructor","inputs":[],"stateMutability":"nonpayable"},{"type":"function","name":"bridgeAddress","inputs":[],"outputs":[{"name":"","type":"address","internalType":"address"}],"stateMutability":"view"},{"type":"function","name":"deployer","inputs":[],"outputs":[{"name":"","type":"address","internalType":"address"}],"stateMutability":"view"},{"type":"function","name":"getLastGlobalExitRoot","inputs":[],"outputs":[{"name":"","type":"bytes32","internalType":"bytes32"}],"stateMutability":"view"},{"type":"function","name":"globalExitRootMap","inputs":[{"name":"","type":"bytes32","internalType":"bytes32"}],"outputs":[{"name":"","type":"uint256","internalType":"uint256"}],"stateMutability":"view"},{"type":"function","name":"initialize","inputs":[{"name":"_rollupAddress","type":"address","internalType":"address"},{"name":"_bridgeAddress","type":"address","internalType":"address"}],"outputs":[],"stateMutability":"nonpayable"},{"type":"function","name":"lastMainnetExitRoot","inputs":[],"outputs":[{"name":"","type":"bytes32","internalType":"bytes32"}],"stateMutability":"view"},{"type":"function","name":"lastRollupExitRoot","inputs":[],"outputs":[{"name":"","type":"bytes32","internalType":"bytes32"}],"stateMutability":"view"},{"type":"function","name":"rollupAddress","inputs":[],"outputs":[{"name":"","type":"address","internalType":"address"}],"stateMutability":"view"},{"type":"function","name":"updateExitRoot","inputs":[{"name":"newRoot","type":"bytes32","internalType":"bytes32"}],"outputs":[],"stateMutability":"nonpayable"},{"type":"event","name":"UpdateGlobalExitRoot","inputs":[{"name":"mainnetExitRoot","type":"bytes32","indexed":true,"internalType":"bytes32"},{"name":"rollupExitRoot","type":"bytes32","indexed":true,"internalType":"bytes32"}],"anonymous":false},{"type":"error","name":"OnlyAllowedContracts","inputs":[]}],"bytecode":{"object":"0x60a08060405234610022573360805261038c9081610028823960805181609b0152f35b600080fdfe608060408181526004918236101561001657600080fd5b600092833560e01c91826301fd9044146102a957508163257b363214610282578163319cf7351461026357816333d6247d146101b55781633ed691ef14610178578163485cc9551461011d575080635ec6a8df146100f5578063a3c573eb146100ce5763d5f394881461008857600080fd5b346100ca57816003193601126100ca57517f00000000000000000000000000000000000000000000000000000000000000006001600160a01b03168152602090f35b5080fd5b50346100ca57816003193601126100ca57905490516001600160a01b039091168152602090f35b50346100ca57816003193601126100ca5760015490516001600160a01b039091168152602090f35b91905034610174573660031901126100ca576001600160a01b0390358181169081900361017457602435918216809203610174576bffffffffffffffffffffffff60a01b9081600154161760015582541617815580f35b8280fd5b5050346100ca57816003193601126100ca576020906101ae60035461019c816102f7565b600254906101a9826102f7565b610332565b9051908152f35b905034610174576020366003190112610174578035916002549260035460018060a01b0380875416331460001461023857505080600355915b6101f88484610332565b8552602052832080541561020a578380f35b4290557f61014378f82a0d809aefaf87a8ac9505b89c321808287a6e7810f29304c1fce38380a33880808380f35b909394506001541633146000146102535780600255926101ee565b815163b49365dd60e01b81528490fd5b5050346100ca57816003193601126100ca576020906003549051908152f35b90503461017457602036600319011261017457602092818392358252845220549051908152f35b8490346100ca57816003193601126100ca576020906002548152f35b6060810190811067ffffffffffffffff8211176102e157604052565b634e487b7160e01b600052604160045260246000fd5b6000809160405160208101916327b7cf8560e01b835260248201526024815261031f816102c5565b51906a636f6e736f6c652e6c6f675afa50565b906040519060208201928352604082015260408152610350816102c5565b5190209056fea26469706673582212207211e1d4329ee6af01286e0e4bf4246317c794d406c021b294165b512969c03564736f6c63430008150033","linkReferences":{}},"methodIdentifiers":{"bridgeAddress()":"a3c573eb","deployer()":"d5f39488","getLastGlobalExitRoot()":"3ed691ef","globalExitRootMap(bytes32)":"257b3632","initialize(address,address)":"485cc955","lastMainnetExitRoot()":"319cf735","lastRollupExitRoot()":"01fd9044","rollupAddress()":"5ec6a8df","updateExitRoot(bytes32)":"33d6247d"},"id":47}