{"abi":[{"type":"constructor","inputs":[],"stateMutability":"nonpayable"},{"type":"function","name":"bridgeAddress","inputs":[],"outputs":[{"name":"","type":"address","internalType":"address"}],"stateMutability":"view"},{"type":"function","name":"deployer","inputs":[],"outputs":[{"name":"","type":"address","internalType":"address"}],"stateMutability":"view"},{"type":"function","name":"globalExitRootMap","inputs":[{"name":"","type":"bytes32","internalType":"bytes32"}],"outputs":[{"name":"","type":"uint256","internalType":"uint256"}],"stateMutability":"view"},{"type":"function","name":"initialize","inputs":[{"name":"_bridgeAddress","type":"address","internalType":"address"}],"outputs":[],"stateMutability":"nonpayable"},{"type":"function","name":"lastRollupExitRoot","inputs":[],"outputs":[{"name":"","type":"bytes32","internalType":"bytes32"}],"stateMutability":"view"},{"type":"function","name":"updateExitRoot","inputs":[{"name":"newRoot","type":"bytes32","internalType":"bytes32"}],"outputs":[],"stateMutability":"nonpayable"},{"type":"function","name":"updateGlobalExitRootMap","inputs":[{"name":"lastMainnetExitRoot","type":"bytes32","internalType":"bytes32"}],"outputs":[],"stateMutability":"nonpayable"},{"type":"event","name":"UpdateGlobalExitRoot","inputs":[{"name":"mainnetExitRoot","type":"bytes32","indexed":true,"internalType":"bytes32"},{"name":"rollupExitRoot","type":"bytes32","indexed":true,"internalType":"bytes32"}],"anonymous":false},{"type":"error","name":"OnlyAllowedContracts","inputs":[]}],"bytecode":{"object":"0x60a0806040523461002f57336080526103599081610035823960805181818160850152818160e501526101b20152f35b600080fdfe608060408181526004918236101561001657600080fd5b600092833560e01c91826301fd90441461030757508163257b3632146102e057816333d6247d146102a55781636502d81614610198578163a3c573eb1461016f578163c4d66de8146100b8575063d5f394881461007257600080fd5b346100b457816003193601126100b457517f00000000000000000000000000000000000000000000000000000000000000006001600160a01b03168152602090f35b5080fd5b90503461016b57602036600319011261016b5780356001600160a01b0381811693918490036101675733907f000000000000000000000000000000000000000000000000000000000000000016036101275750506bffffffffffffffffffffffff60a01b600254161760025580f35b61016392505191829162461bcd60e51b8352820160609060208152600d60208201526c37b7363c903232b83637bcb2b960991b60408201520190565b0390fd5b8480fd5b8280fd5b5050346100b457816003193601126100b45760025490516001600160a01b039091168152602090f35b9190503461016b57602036600319011261016b57813591337f00000000000000000000000000000000000000000000000000000000000000006001600160a01b03160361026a5760015490825190602082019285845284830152838252606082019082821067ffffffffffffffff831117610257575083525190208352826020528220805415610226578280f35b429055600154907f61014378f82a0d809aefaf87a8ac9505b89c321808287a6e7810f29304c1fce38380a338808280f35b634e487b7160e01b875260419052602486fd5b610163915191829162461bcd60e51b8352820160609060208152600d60208201526c37b7363c903232b83637bcb2b960991b60408201520190565b9190503461016b57602036600319011261016b576002546001600160a01b031633036102d357503560015580f35b5163b49365dd60e01b8152fd5b90503461016b57602036600319011261016b57602092829135815280845220549051908152f35b8490346100b457816003193601126100b4576020906001548152f3fea2646970667358221220755e1731663a766a0bc0e6e1d0d492fdf1522bc901a2370fb209277240cef1fe64736f6c63430008150033","linkReferences":{}},"methodIdentifiers":{"bridgeAddress()":"a3c573eb","deployer()":"d5f39488","globalExitRootMap(bytes32)":"257b3632","initialize(address)":"c4d66de8","lastRollupExitRoot()":"01fd9044","updateExitRoot(bytes32)":"33d6247d","updateGlobalExitRootMap(bytes32)":"6502d816"},"id":48}