{"abi":[{"type":"function","name":"bridgeAsset","inputs":[{"name":"destinationNetwork","type":"uint32","internalType":"uint32"},{"name":"destinationAddress","type":"address","internalType":"address"},{"name":"amount","type":"uint256","internalType":"uint256"},{"name":"token","type":"address","internalType":"address"},{"name":"forceUpdateGlobalExitRoot","type":"bool","internalType":"bool"},{"name":"permitData","type":"bytes","internalType":"bytes"}],"outputs":[],"stateMutability":"payable"},{"type":"function","name":"bridgeMessage","inputs":[{"name":"destinationNetwork","type":"uint32","internalType":"uint32"},{"name":"destinationAddress","type":"address","internalType":"address"},{"name":"forceUpdateGlobalExitRoot","type":"bool","internalType":"bool"},{"name":"metadata","type":"bytes","internalType":"bytes"}],"outputs":[],"stateMutability":"payable"},{"type":"function","name":"claimAsset","inputs":[{"name":"smtProof","type":"bytes32[32]","internalType":"bytes32[32]"},{"name":"index","type":"uint32","internalType":"uint32"},{"name":"mainnetExitRoot","type":"bytes32","internalType":"bytes32"},{"name":"rollupExitRoot","type":"bytes32","internalType":"bytes32"},{"name":"originNetwork","type":"uint32","internalType":"uint32"},{"name":"originTokenAddress","type":"address","internalType":"address"},{"name":"destinationNetwork","type":"uint32","internalType":"uint32"},{"name":"destinationAddress","type":"address","internalType":"address"},{"name":"amount","type":"uint256","internalType":"uint256"},{"name":"metadata","type":"bytes","internalType":"bytes"}],"outputs":[],"stateMutability":"nonpayable"},{"type":"function","name":"claimMessage","inputs":[{"name":"smtProof","type":"bytes32[32]","internalType":"bytes32[32]"},{"name":"index","type":"uint32","internalType":"uint32"},{"name":"mainnetExitRoot","type":"bytes32","internalType":"bytes32"},{"name":"rollupExitRoot","type":"bytes32","internalType":"bytes32"},{"name":"originNetwork","type":"uint32","internalType":"uint32"},{"name":"originAddress","type":"address","internalType":"address"},{"name":"destinationNetwork","type":"uint32","internalType":"uint32"},{"name":"destinationAddress","type":"address","internalType":"address"},{"name":"amount","type":"uint256","internalType":"uint256"},{"name":"metadata","type":"bytes","internalType":"bytes"}],"outputs":[],"stateMutability":"nonpayable"},{"type":"function","name":"claimedBitMap","inputs":[{"name":"","type":"uint256","internalType":"uint256"}],"outputs":[{"name":"","type":"uint256","internalType":"uint256"}],"stateMutability":"view"},{"type":"function","name":"depositCount","inputs":[],"outputs":[{"name":"","type":"uint256","internalType":"uint256"}],"stateMutability":"view"},{"type":"function","name":"eigenZkVMaddress","inputs":[],"outputs":[{"name":"","type":"address","internalType":"address"}],"stateMutability":"view"},{"type":"function","name":"getDepositRoot","inputs":[],"outputs":[{"name":"","type":"bytes32","internalType":"bytes32"}],"stateMutability":"view"},{"type":"function","name":"getLeafValue","inputs":[{"name":"leafType","type":"uint8","internalType":"uint8"},{"name":"originNetwork","type":"uint32","internalType":"uint32"},{"name":"originAddress","type":"address","internalType":"address"},{"name":"destinationNetwork","type":"uint32","internalType":"uint32"},{"name":"destinationAddress","type":"address","internalType":"address"},{"name":"amount","type":"uint256","internalType":"uint256"},{"name":"metadataHash","type":"bytes32","internalType":"bytes32"}],"outputs":[{"name":"","type":"bytes32","internalType":"bytes32"}],"stateMutability":"pure"},{"type":"function","name":"getTokenWrappedAddress","inputs":[{"name":"originNetwork","type":"uint32","internalType":"uint32"},{"name":"originTokenAddress","type":"address","internalType":"address"}],"outputs":[{"name":"","type":"address","internalType":"address"}],"stateMutability":"view"},{"type":"function","name":"globalExitRootManager","inputs":[],"outputs":[{"name":"","type":"address","internalType":"contract IBaseEigenGlobalExitRoot"}],"stateMutability":"view"},{"type":"function","name":"initialize","inputs":[{"name":"_networkID","type":"uint32","internalType":"uint32"},{"name":"_globalExitRootManager","type":"address","internalType":"contract IBaseEigenGlobalExitRoot"},{"name":"_eigenZkVMaddress","type":"address","internalType":"address"}],"outputs":[],"stateMutability":"nonpayable"},{"type":"function","name":"isClaimed","inputs":[{"name":"index","type":"uint256","internalType":"uint256"}],"outputs":[{"name":"","type":"bool","internalType":"bool"}],"stateMutability":"view"},{"type":"function","name":"lastUpdatedDepositCount","inputs":[],"outputs":[{"name":"","type":"uint32","internalType":"uint32"}],"stateMutability":"view"},{"type":"function","name":"networkID","inputs":[],"outputs":[{"name":"","type":"uint32","internalType":"uint32"}],"stateMutability":"view"},{"type":"function","name":"precalculatedWrapperAddress","inputs":[{"name":"originNetwork","type":"uint32","internalType":"uint32"},{"name":"originTokenAddress","type":"address","internalType":"address"},{"name":"name","type":"string","internalType":"string"},{"name":"symbol","type":"string","internalType":"string"},{"name":"decimals","type":"uint8","internalType":"uint8"}],"outputs":[{"name":"","type":"address","internalType":"address"}],"stateMutability":"view"},{"type":"function","name":"tokenInfoToWrappedToken","inputs":[{"name":"","type":"bytes32","internalType":"bytes32"}],"outputs":[{"name":"","type":"address","internalType":"address"}],"stateMutability":"view"},{"type":"function","name":"updateGlobalExitRoot","inputs":[],"outputs":[],"stateMutability":"nonpayable"},{"type":"function","name":"verifyMerkleProof","inputs":[{"name":"leafHash","type":"bytes32","internalType":"bytes32"},{"name":"smtProof","type":"bytes32[32]","internalType":"bytes32[32]"},{"name":"index","type":"uint32","internalType":"uint32"},{"name":"root","type":"bytes32","internalType":"bytes32"}],"outputs":[{"name":"","type":"bool","internalType":"bool"}],"stateMutability":"pure"},{"type":"function","name":"wrappedTokenToTokenInfo","inputs":[{"name":"","type":"address","internalType":"address"}],"outputs":[{"name":"originNetwork","type":"uint32","internalType":"uint32"},{"name":"originTokenAddress","type":"address","internalType":"address"}],"stateMutability":"view"},{"type":"event","name":"BridgeEvent","inputs":[{"name":"leafType","type":"uint8","indexed":false,"internalType":"uint8"},{"name":"originNetwork","type":"uint32","indexed":false,"internalType":"uint32"},{"name":"originAddress","type":"address","indexed":false,"internalType":"address"},{"name":"destinationNetwork","type":"uint32","indexed":false,"internalType":"uint32"},{"name":"destinationAddress","type":"address","indexed":false,"internalType":"address"},{"name":"amount","type":"uint256","indexed":false,"internalType":"uint256"},{"name":"metadata","type":"bytes","indexed":false,"internalType":"bytes"},{"name":"depositCount","type":"uint32","indexed":false,"internalType":"uint32"}],"anonymous":false},{"type":"event","name":"ClaimEvent","inputs":[{"name":"index","type":"uint32","indexed":false,"internalType":"uint32"},{"name":"originNetwork","type":"uint32","indexed":false,"internalType":"uint32"},{"name":"originAddress","type":"address","indexed":false,"internalType":"address"},{"name":"destinationAddress","type":"address","indexed":false,"internalType":"address"},{"name":"amount","type":"uint256","indexed":false,"internalType":"uint256"}],"anonymous":false},{"type":"event","name":"Initialized","inputs":[{"name":"version","type":"uint8","indexed":false,"internalType":"uint8"}],"anonymous":false},{"type":"event","name":"Log","inputs":[{"name":"idx","type":"uint32","indexed":false,"internalType":"uint32"}],"anonymous":false},{"type":"event","name":"NewWrappedToken","inputs":[{"name":"originNetwork","type":"uint32","indexed":false,"internalType":"uint32"},{"name":"originTokenAddress","type":"address","indexed":false,"internalType":"address"},{"name":"wrappedTokenAddress","type":"address","indexed":false,"internalType":"address"},{"name":"metadata","type":"bytes","indexed":false,"internalType":"bytes"}],"anonymous":false},{"type":"error","name":"AlreadyClaimed","inputs":[]},{"type":"error","name":"AmountDoesNotMatchMsgValue","inputs":[]},{"type":"error","name":"DestinationNetworkInvalid","inputs":[]},{"type":"error","name":"EtherTransferFailed","inputs":[]},{"type":"error","name":"GlobalExitRootInvalid","inputs":[]},{"type":"error","name":"InvalidSmtProof","inputs":[]},{"type":"error","name":"MerkleTreeFull","inputs":[]},{"type":"error","name":"MessageFailed","inputs":[]},{"type":"error","name":"MsgValueNotZero","inputs":[]},{"type":"error","name":"NotValidAmount","inputs":[]},{"type":"error","name":"NotValidOwner","inputs":[]},{"type":"error","name":"NotValidSignature","inputs":[]},{"type":"error","name":"NotValidSpender","inputs":[]},{"type":"error","name":"OnlyForEigenZkVM","inputs":[]}],"bytecode":{"object":"0x60406080815234620000b55760006033908082556001918291825b6200002f575b8451613f959081620000bb8239f35b602080841015620000ae57855190810182815281870192909252858152606081016001600160401b038111828210176200009857865251902080838301556000198314620000825783809301926200001a565b634e487b7160e01b600052601160045260246000fd5b634e487b7160e01b600052604160045260246000fd5b5062000020565b600080fdfe60808060405260043610156200001457600080fd5b600090813560e01c90816322e95f2c1462001da057508063240ff3781462001c225780632cffd02e14620014455780632d2c9d9414620011975780632dfdf0b51462001177578063318aee3d14620011255780633ae0504714620010fe5780633e1970431462001024578063647c576c1462000e7757806379e2cf971462000e3f57806381b1c1741462000e0a5780639e34070f1462000dcf578063a303f0f51462000da4578063aaa13cc21462000bc7578063bab161bf1462000ba1578063be5831c71462000b78578063cd5865791462000234578063d02103ca1462000209578063ee25560b14620001dd5763fb570834146200011257600080fd5b34620001da57610460366003190112620001da5761042490368211620001da57503563ffffffff8116809103620001d55760006004355b602080831015620001c55790620001999160018086861c1614600014620001a057604051908101918460051b6024013583526040820152604081526200018f816200201d565b5190209162002470565b9062000149565b6040519081019182528360051b602401356040820152604081526200018f816200201d565b6020826040519061044435148152f35b600080fd5b80fd5b5034620001da576020366003190112620001da5760406020916004358152605f83522054604051908152f35b5034620001da5780600319360112620001da57605e54604051602091821c6001600160a01b03168152f35b5060c0366003190112620001da576200024c62001e30565b6200025662001e44565b906064356001600160a01b0381169003620001d557608435151560843503620001d55760a4356001600160401b038111620009ba576200029b90369060040162001e87565b909260026001541462000b3357600260015563ffffffff605e541663ffffffff841614801562000b21575b62000b0f578493606092604435916064356001600160a01b03166200042657505060443534036200041457620003f49486935b7f501781209a1f8899323b96b4ef08b168df93e0a90c673d1e4cce39366cb62f9b63ffffffff6053541660405180916200037b6101008d845263ffffffff8b16602085015260018060a01b038816604085015263ffffffff8c16606085015260018060a01b038a1660808501528860a08501528060c085015283018662002080565b9060e08301520390a160208151910120926040519460208601966000885263ffffffff60e01b809260e01b1660218801526001600160601b0319809460601b16602588015260e01b16603986015260601b16603d8401526051830152607182015260718152620003eb8162002001565b5190206200269f565b60843562000404575b6001805580f35b6200040e62002345565b620003fd565b60405163b89240f560e01b8152600490fd5b9095503462000afd576064356001600160a01b031687526061602052604080882090519190620004568362001fe5565b5463ffffffff81168352602090811c6001600160a01b0316908301818152979015620005185750506064356001600160a01b03163b156200050957604051632770a7eb60e21b81523360048201526044803560248301528891908290829081836001600160a01b03606435165af180156200050d57620004f1575b505063ffffffff620003f49660018060a01b0390511691511693620002f9565b620004fc9062001fd1565b62000509578638620004d1565b8680fd5b6040513d84823e3d90fd5b939650935050508062000834575b50506040516370a0823160e01b81523060048201526020816024816064356001600160a01b03165afa90811562000829578491620007f1575b50620005a96040516323b872dd60e01b6020820152336024820152306044820152604435606482015260648152620005978162002001565b6064356001600160a01b0316620020fa565b6040516370a0823160e01b8152306004820152906020826024816064356001600160a01b03165afa918215620007e6578592620007ac575b50810390811162000796576064359263ffffffff605e541691858060405160208101906306fdde0360e01b8252600481526200061d8162001fe5565b51906064355afa6200062e620021ef565b90156200076c57620006409062002480565b945b868060405160208101906395d89b4160e01b825260048152620006658162001fe5565b51906064355afa62000676620021ef565b90156200074157620006889062002480565b8780604051602081019063313ce56760e01b825260048152620006ab8162001fe5565b51906064355afa620006bc620021ef565b908062000735575b156200071f576020818051810103126200071b576020015160ff811681036200071b57620003f4976200070662000715925b60405194859360208501620020a7565b03601f19810183528262002039565b620002f9565b8880fd5b5062000715620003f497620007066012620006f6565b506020815114620006c4565b50604051620007508162001fe5565b60098152681393d7d4d6535093d360ba1b602082015262000688565b506040516200077b8162001fe5565b60078152664e4f5f4e414d4560c81b60208201529462000642565b634e487b7160e01b600052601160045260246000fd5b9091506020813d602011620007dd575b81620007cb6020938362002039565b81010312620001d557519038620005e1565b3d9150620007bc565b6040513d87823e3d90fd5b90506020813d60201162000820575b816200080f6020938362002039565b81010312620001d55751386200055f565b3d915062000800565b6040513d86823e3d90fd5b8060041162000af95781356001600160e01b03191663d505accf60e01b8103620009be575060e09082018290036003190112620009ba57620008796004820162001e72565b90620008886024820162001e72565b90620008976084820162001f61565b91336001600160a01b03851603620009a857306001600160a01b038216036200099657604435604483013503620009845760c49260ff916040519563d505accf60e01b602088015260018060a01b0316602487015260018060a01b0316604486015260448301356064860152606483013560848601521660a484015260a481013582840152013560e482015260e48152806101208101106001600160401b03610120830111176200096e578381610120829301604052602081519101826064355af15062000964620021ef565b505b388062000526565b634e487b7160e01b600052604160045260246000fd5b6040516303fffc4b60e01b8152600490fd5b60405163750643af60e01b8152600490fd5b60405163912ecce760e01b8152600490fd5b8380fd5b6323f2ebc360e21b0362000ae7576101009082018290036003190112620009ba57620009ed6004820162001e72565b90620009fc6024820162001e72565b60848201358015158103620001d55762000a1960a4840162001f61565b90336001600160a01b03861603620009a857306001600160a01b03841603620009965760ff92604051956323f2ebc360e21b602088015260018060a01b0316602487015260018060a01b031660448601526044840135606486015260648401356084860152151560a48501521660c483015260c481013560e483015260e4610104910135818301528152806101408101106001600160401b03610140830111176200096e578381610140829301604052602081519101826064355af15062000ae0620021ef565b5062000966565b604051637141605d60e11b8152600490fd5b8480fd5b60405163798ee6f160e01b8152600490fd5b6040516302caf51760e11b8152600490fd5b50600263ffffffff84161015620002c6565b60405162461bcd60e51b815260206004820152601f60248201527f5265656e7472616e637947756172643a207265656e7472616e742063616c6c006044820152606490fd5b5034620001da5780600319360112620001da57602063ffffffff605e5460c01c16604051908152f35b5034620001da5780600319360112620001da57602063ffffffff605e5416604051908152f35b5034620001da5760a0366003190112620001da5762000be562001e30565b9062000bf062001e44565b6001600160401b03919060443583811162000da05762000c1590369060040162001e87565b94909260643590858211620001da575062000c3590369060040162001e87565b9390926084359460ff8616809603620001d55762000c999762000cf462000d1862000d429662000d4f96604051918260209e8f998a83019384909160189263ffffffff60e01b9060e01b1682526001600160601b03199060601b1660048201520190565b039262000caf601f199485810183528262002039565b5190209a62000d056117329b8c9862000cce8b6040519b018b62002039565b8d8a528a8a019d620027ee8f396040519788958c87019a60608c526080880191620022c7565b9186868403016040870152620022c7565b9060608301520390810183528262002039565b60405195869362000d32868601998a92519283916200205b565b840191518093868401906200205b565b0103808452018262002039565b51902090604051918483019160ff60f81b83523060601b602185015260358401526055830152605582526080820192828410908411176200096e576040839052905190206001600160a01b03168152f35b8280fd5b5034620001da5780600319360112620001da576062546040516001600160a01b039091168152602090f35b5034620001da576020366003190112620001da576020906004356040600160ff83161b92839260081c8152605f855220541614604051908152f35b5034620001da576020366003190112620001da57602090600435815260608252604060018060a01b0391205416604051908152f35b5034620001da5780600319360112620001da5763ffffffff605e5460c01c166053541162000e6a5780f35b62000e7462002345565b80f35b5034620001da576060366003190112620001da5762000e9562001e30565b602435906001600160a01b03908183168303620009ba5762000eb662001e5b565b9084549360ff8560081c16159485809662001016575b801562000ffd575b1562000fa15760ff19811660011787558562000f8f575b5063ffffffff605e5491640100000000600160c01b039060201b169216906001600160401b0360c01b161717605e55166001600160601b0360a01b606254161760625581549062000f4d60ff8360081c1662000f478162001f70565b62001f70565b6001805562000f5a575080f35b61ff00191681557f7f26b83ff96e1f2b6a682f133852f6798a09c465da95921460cefb3847402498602060405160018152a180f35b61ffff19166101011786553862000eeb565b60405162461bcd60e51b815260206004820152602e60248201527f496e697469616c697a61626c653a20636f6e747261637420697320616c72656160448201526d191e481a5b9a5d1a585b1a5e995960921b6064820152608490fd5b50303b15801562000ed45750600160ff82161462000ed4565b50600160ff82161062000ecc565b5034620001da5760e0366003190112620001da5760043560ff81168103620001d5576024359063ffffffff8083168303620001d5576200106362001e5b565b6064359182168203620001d5576084356001600160a01b0381168103620001d557602094604051938685019560ff60f81b9060f81b16865263ffffffff60e01b809260e01b1660218601526001600160601b0319809460601b16602586015260e01b16603984015260601b16603d82015260a435605182015260c435607182015260718152620010f38162002001565b519020604051908152f35b5034620001da5780600319360112620001da5760206200111d620025f0565b604051908152f35b5034620001da576020366003190112620001da576001600160a01b0360043581811690819003620001d5578260409391849252606160205220549082519163ffffffff8116835260201c166020820152f35b5034620001da5780600319360112620001da576020605354604051908152f35b5034620001da57620011a93662001eb7565b94969093919598979299600160ff8a161b62ffffff8a60081c16600052605f602052604060002081815418809155161562001433576000602060018060a01b03605e54821c166024604051838101908982528760408201526040815262001210816200201d565b51902060405194859384926312bd9b1960e11b845260048401525af19081156200142757600091620013ef575b5015620013de5763ffffffff605e5416918263ffffffff85160362000b0f57620012ef948a93620013d55750925b8a8c8a6200127b368b8b620022e8565b6020815191012091604051936020850195600160f81b875263ffffffff60e01b809260e01b1660218701526001600160601b0319809460601b16602587015260e01b16603985015260601b16603d830152896051830152607182015260718152620012e68162002001565b5190206200274d565b15620013c357604051630c035af960e11b602082019081526001600160a01b038616602483015263ffffffff8816604483015260606064830152899384939192916200134791839162000706916084840191620022c7565b519084895af162001357620021ef565b5015620013b1576040805163ffffffff94851681529390941660208401526001600160a01b03918216938301939093529092166060830152608082015260008051602062003f40833981519152908060a081015b0390a180f35b6040516337e391c360e01b8152600490fd5b6040516338105f3b60e21b8152600490fd5b9050926200126b565b604051622f6fad60e01b8152600490fd5b906020823d6020116200141e575b816200140c6020938362002039565b81010312620001da575051386200123d565b3d9150620013fd565b6040513d6000823e3d90fd5b604051630c8d9eab60e31b8152600490fd5b5034620001da57620014573662001eb7565b939094968b8060409c959c9b9a94989b51620014738162001fe5565b601881527f3d3d3d3d3d3d3d3d636c61696d417373657420737461727400000000000000006020820152604051620014ca8162000706602082019463104c13eb60e21b865260206024840152604483019062002080565b51906a636f6e736f6c652e6c6f675afa5060008051602062003f20833981519152602060405160018152a1600160ff8a161b62ffffff8a60081c168d52605f60205260408d2081815418809155161562001433578b602060018060a01b03605e54821c16602460405183810190888252866040820152604081526200154f816200201d565b51902060405194859384926312bd9b1960e11b845260048401525af190811562001c17578d9162001bdf575b5015620013de5763ffffffff605e5416938463ffffffff84160362000b0f578c8c938c8b8d9562001626988a1560001462001bd65750965b620015c0368c8e620022e8565b6020815191012092604051946020860196875263ffffffff60e01b809260e01b1660218701526001600160601b0319809460601b16602587015260e01b16603985015260601b16603d8301528a6051830152607182015260718152620012e68162002001565b15620013c35760008051602062003f20833981519152602060405160028152a16001600160a01b038516620016f857505050604051602081018181106001600160401b038211176200096e57878181809481946040525284895af16200168b620021ef565b5015620016e65760008051602062003f4083398151915294620013ab925b60405195869586919594936080939160a084019763ffffffff809216855216602084015260018060a01b0380921660408401521660608201520152565b604051630ce8f45160e31b8152600490fd5b919692939163ffffffff8716036200178e575060008051602062003f40833981519152955090620013ab929160008051602062003f20833981519152602060405160038152a160405163a9059cbb60e01b60208201526001600160a01b038316602482015260448101849052620017889062001778816064810162000706565b6001600160a01b038316620020fa565b620016a9565b60008051602062003f20833981519152602060405160048152a160405160e087901b6001600160e01b03191660208201908152606084901b6bffffffffffffffffffffffff1916602483015290620017ea816038810162000706565b5190209660008051602062003f20833981519152602060405160058152a1878952606060205260018060a01b0360408a20541660008051602062003f20833981519152602060405160068152a18062001b30575060008051602062003f20833981519152602060405160078152a181810160608282031262001b05576001600160401b0390823582811162001b2c57816200188791850162002324565b9060208401359083821162001b2857620018a391850162002324565b620018b16040850162001f61565b9160008051602062003f20833981519152602060405160088152a16040519384611732810110906117328601111762001b145783928c94926200190292611732620027ee86396117328501620020a7565b03908bf597881562001b095760008051602062003f20833981519152602060405160098152a16001600160a01b0389163b1562001b05576040516340c10f1960e01b81526001600160a01b0386166004820152602481018790528a9081818c8183816044810103926001600160a01b03165af180156200050d5762001ae3575b50509160008051602062003f408339815191529862001ada7f490e59a1701b938786ac72570a1efeac994a3dbe96e2e883e19e902ace6e6a3993620013ab9897969560008051602062003f208339815191526020604051600a8152a18d52606060209081526040808f2080546001600160a01b0319166001600160a01b03871617905551600b815260008051602062003f208339815191529190a160405162001a2b8162001fe5565b63ffffffff8c1681528d63ffffffff6040602084019260018060a01b038b16845260018060a01b0388168152606160205220925116825491640100000000600160c01b03905160201b16916001600160401b0360c01b161717905560008051602062003f208339815191526020604051600c8152a16040805163ffffffff8d1681526001600160a01b0388811660208301529094169084015260806060840181905292938493840191620022c7565b0390a1620016a9565b62001af49097969594929762001fd1565b62001b055791929394893862001982565b8980fd5b6040513d8b823e3d90fd5b634e487b7160e01b8d52604160045260248dfd5b8c80fd5b8b80fd5b929897505050803b1562001bd2576040516340c10f1960e01b81526001600160a01b0383166004820152602481018490529086908290604490829084905af1801562001bc75762001b9b575b5090620013ab9160008051602062003f408339815191529596620016a9565b9060008051602062003f408339815191529562001bbd620013ab949362001fd1565b9550909162001b7c565b6040513d88823e3d90fd5b8580fd5b905096620015b3565b90506020813d60201162001c0e575b8162001bfd6020938362002039565b8101031262001b285751386200157b565b3d915062001bee565b6040513d8f823e3d90fd5b506080366003190112620001da5762001c3a62001e30565b62001c4462001e44565b604435918215158303620009ba576064356001600160401b03811162000af95762001c7490369060040162001e87565b929091605e549263ffffffff908185169582841692878414801562001d94575b62000b0f5762001d8c9762001d20947f501781209a1f8899323b96b4ef08b168df93e0a90c673d1e4cce39366cb62f9b926053541662001d0f60405193849361010091600186526020860152336040860152606085015260018060a01b038b1660808501523460a08501528060c085015283018688620022c7565b9060e08301520390a13691620022e8565b6020815191012090604051926020840194600160f81b865263ffffffff60e01b809160e01b1660218601526001600160601b031992833360601b16602587015260e01b16603985015260601b16603d830152346051830152607182015260718152620003eb8162002001565b62000e6a5780f35b50600284101562001c94565b90503462001e2c57604036600319011262001e2c579060209162001dc362001e30565b9062001e0e816200070662001dd762001e44565b60e09590951b6001600160e01b03191682880190815260609590951b6bffffffffffffffffffffffff191660048601526018850190565b519020815260608252604060018060a01b0391205416604051908152f35b5080fd5b6004359063ffffffff82168203620001d557565b602435906001600160a01b0382168203620001d557565b604435906001600160a01b0382168203620001d557565b35906001600160a01b0382168203620001d557565b9181601f84011215620001d5578235916001600160401b038311620001d55760208381860195010111620001d557565b90610520600319830112620001d55761040491808311620001d557600492359063ffffffff918281168103620001d5579261042435926104443592610464358281168103620001d557926001600160a01b0391610484358381168103620001d557936104a4359081168103620001d557926104c4359081168103620001d557916104e4359161050435906001600160401b038211620001d55762001f5d918c0162001e87565b9091565b359060ff82168203620001d557565b1562001f7857565b60405162461bcd60e51b815260206004820152602b60248201527f496e697469616c697a61626c653a20636f6e7472616374206973206e6f74206960448201526a6e697469616c697a696e6760a81b6064820152608490fd5b6001600160401b0381116200096e57604052565b604081019081106001600160401b038211176200096e57604052565b60a081019081106001600160401b038211176200096e57604052565b606081019081106001600160401b038211176200096e57604052565b90601f801991011681019081106001600160401b038211176200096e57604052565b60005b8381106200206f5750506000910152565b81810151838201526020016200205e565b906020916200209b815180928185528580860191016200205b565b601f01601f1916010190565b91620020d760ff91620020c860409497969760608752606087019062002080565b90858203602087015262002080565b9416910152565b6001600160401b0381116200096e57601f01601f191660200190565b60018060a01b0316906200215f604051620021158162001fe5565b6020938482527f5361666545524332303a206c6f772d6c6576656c2063616c6c206661696c6564858301526000808587829751910182855af162002158620021ef565b9162002224565b8051806200216e575b50505050565b8184918101031262001e2c5782015190811591821503620001da5750620021985780808062002168565b6084906040519062461bcd60e51b82526004820152602a60248201527f5361666545524332303a204552433230206f7065726174696f6e20646964206e6044820152691bdd081cdd58d8d9595960b21b6064820152fd5b3d156200221f573d906200220382620020de565b9162002213604051938462002039565b82523d6000602084013e565b606090565b919290156200228957508151156200223a575090565b3b15620022445790565b60405162461bcd60e51b815260206004820152601d60248201527f416464726573733a2063616c6c20746f206e6f6e2d636f6e74726163740000006044820152606490fd5b8251909150156200229d5750805190602001fd5b60405162461bcd60e51b815260206004820152908190620022c390602483019062002080565b0390fd5b908060209392818452848401376000828201840152601f01601f1916010190565b929192620022f682620020de565b9162002306604051938462002039565b829481845281830111620001d5578281602093846000960137010152565b9080601f83011215620001d5578160206200234293359101620022e8565b90565b605354605e549063ffffffff60c01b9060c01b169063ffffffff60c01b19161780605e5562002373620025f0565b9060405160208101926327b7cf8560e01b84526024820152602481526200239a816200201d565b60008093819251906a636f6e736f6c652e6c6f675afa5060201c6001600160a01b0316620023c7620025f0565b813b1562000da05782916024839260405195869384926333d6247d60e01b845260048401525af19081156200240c5750620023ff5750565b6200240a9062001fd1565b565b604051903d90823e3d90fd5b60405190620024278262001fe5565b60128252714e4f545f56414c49445f454e434f44494e4760701b6020830152565b9081518110156200245a570160200190565b634e487b7160e01b600052603260045260246000fd5b6000198114620007965760010190565b8051604081106200250357508051810190602081818401930312620001d5576020810151906001600160401b038211620001d5570181603f82011215620001d5576020810151620024d181620020de565b92620024e1604051948562002039565b81845260408284010111620001d557620023429160406020850191016200205b565b6020908103620025e4576000805b82811080620025c4575b1562002532576200252c9062002470565b62002511565b91928215620025b6576200254683620020de565b9362002556604051958662002039565b838552601f196200256785620020de565b01903690860137815b8381106200257f575050505090565b620025b0906001600160f81b031962002599828562002448565b5116841a620025a9828862002448565b5362002470565b62002570565b505050506200234262002418565b506001600160f81b0319620025da828662002448565b511615156200251b565b50506200234262002418565b6000605354819082915b60209384841015620026975790620026699160018085871c1614600014620026705784603301549060408051918883019384528183015281526200263e816200201d565b519020945b60408051918201928084528183015281526200265f816200201d565b5190209262002470565b91620025fa565b6040805190878201928352838183015281526200268d816200201d565b5190209462002643565b935050505090565b60535463ffffffff8110156200272957620026ba9062002470565b90816053556000905b602080831015620027135760018085851c16146200270a5790620027039183603301549160409081519283019384528183015281526200018f816200201d565b90620026c3565b50915060330155565b634e487b7160e01b600052600160045260246000fd5b6040516377ae67b360e11b8152600490fd5b9060208110156200245a5760051b0190565b9392909193916000925b602080851015620027e25790620027b29160018063ffffffff8a16881c1614600014620027b9576200278a86856200273b565b35916040908151928301938452818301528152620027a8816200201d565b5190209362002470565b9262002757565b620027c586856200273b565b356040908151928301938452818301528152620027a8816200201d565b50925050919250149056fe6101006040908082523462000479576200173280380380916200002382856200047e565b83398101606082820312620004795781516001600160401b03939084811162000479578262000054918501620004a2565b92602092838201518681116200047957839162000073918401620004a2565b91015160ff8116810362000479578451948686116200039957600395806200009c885462000518565b92601f9384811162000424575b508790848311600114620003bb57600092620003af575b50508160011b9160001990891b1c19161786555b82519087821162000399578190600494620000f0865462000518565b82811162000342575b5087918311600114620002d957600092620002cd575b50508160011b9160001990881b1c19161782555b3360c05260e05246608052815184549490600081620001428862000518565b9182825287820194600199898b82169182600014620002ad57505060011462000268575b5062000175925003826200047e565b519020938251838101818110888211176200025357908591855282815201603160f81b8152208251938401947f8b73c3c69bb8fe3d512ecc4cf759cc79239f7b179b0ffacaa9a75d522b39400f86528385015260608401524660808401523060a084015260a0835260c0830194838610908611176200023e575083905251902060a0526111dc90816200055682396080518181816103f70152610feb015260a05181611012015260c051818181610508015281816105650152610823015260e051816109730152f35b604190634e487b7160e01b6000525260246000fd5b604184634e487b7160e01b6000525260246000fd5b915050600052818680600020896000915b858310620002935750506200017593508201013862000166565b809192945054838588010152019101879089859362000279565b60ff191688526200017595151560051b8501019250389150620001669050565b0151905038806200010f565b60008681528881209350601f198516905b898282106200032b57505090846001959493921062000312575b505050811b01825562000123565b0151600019838a1b60f8161c1916905538808062000304565b6001859682939686015181550195019301620002ea565b9091925085600052876000208380860160051c8201928a87106200038f575b94869594939291940160051c01905b8181106200037f5750620000f9565b6000815585945060010162000370565b9250819262000361565b634e487b7160e01b600052604160045260246000fd5b015190503880620000c0565b60008a81528981209350601f198516905b8a8282106200040d575050908460019594939210620003f4575b505050811b018655620000d4565b0151600019838b1b60f8161c19169055388080620003e6565b6001859682939686015181550195019301620003cc565b90915060008981528881208580860160051c8201938b87106200046f575b908695949392910160051c01915b82811062000460575050620000a9565b81815585945060010162000450565b9350819362000442565b600080fd5b601f909101601f19168101906001600160401b038211908210176200039957604052565b919080601f84011215620004795782516001600160401b038111620003995760209060405192620004dd83601f19601f85011601856200047e565b818452828287010111620004795760005b8181106200050457508260009394955001015290565b8581018301518482018401528201620004ee565b90600182811c921680156200054a575b60208310146200053457565b634e487b7160e01b600052602260045260246000fd5b91607f16916200052856fe608060408181526004918236101561001657600080fd5b600092833560e01c91826306fdde0314610b2057508163095ea7b314610af657816318160ddd14610ad757816320606b7014610a9c57816323b872dd146109d257816330adf81f14610997578163313ce567146109595781633644e5151461093557816339509351146108e557816340c10f19146107f457816370a08231146107bd5781637ecebe001461078557816395d89b41146106865781639dc29fac14610537578163a3c573eb146104f3578163a457c2d71461044b578163a9059cbb1461041a578163cd0d0096146103df578163d505accf1461018357508063dd62ed3e1461013b5763ffa1ad741461010c57600080fd5b3461013757816003193601126101375761013390610128610cc7565b905191829182610c15565b0390f35b5080fd5b503461013757806003193601126101375780602092610158610c5e565b610160610c79565b6001600160a01b0391821683526001865283832091168252845220549051908152f35b839150346101375760e03660031901126101375761019f610c5e565b6101a7610c79565b90604435926064356084359060ff82168092036103db5780421161038c576001600160a01b0384811680895260056020528989208054919492939291906000198214610379576001820190558a519260208401917f6e71edae12b1b97f4d1f60370fef10105fa2faae0126114a169c64845d6126c98352868d860152858a1660608601528a608086015260a085015260c084015260c0835260e083019267ffffffffffffffff9381811085821117610366578c5251902090610267610fe6565b8b5192602084019161190160f01b8352602285015260428401526042835260808301938385109085111761035357928a92608092602095838f5282519020835260a082015260a43560c082015260e060c43591015282805260015afa156103495786511690811515918261033f575b5050156102ec57506102e9939450610e86565b80f35b608490602087519162461bcd60e51b8352820152602760248201527f546f6b656e577261707065643a3a7065726d69743a20496e76616c6964207369604482015266676e617475726560c81b6064820152fd5b14905087806102d6565b87513d88823e3d90fd5b634e487b7160e01b8b526041875260248bfd5b634e487b7160e01b8c526041885260248cfd5b634e487b7160e01b8b526011875260248bfd5b875162461bcd60e51b81526020818501526024808201527f546f6b656e577261707065643a3a7065726d69743a20457870697265642070656044820152631c9b5a5d60e21b6064820152608490fd5b8680fd5b505034610137578160031936011261013757602090517f00000000000000000000000000000000000000000000000000000000000000008152f35b50503461013757806003193601126101375760209061044461043a610c5e565b6024359033610d18565b5160018152f35b905082346104f057826003193601126104f057610466610c5e565b918360243592338152600160205281812060018060a01b038616825260205220549082821061049f576020856104448585038733610e86565b608490602086519162461bcd60e51b8352820152602560248201527f45524332303a2064656372656173656420616c6c6f77616e63652062656c6f77604482015264207a65726f60d81b6064820152fd5b80fd5b505034610137578160031936011261013757517f00000000000000000000000000000000000000000000000000000000000000006001600160a01b03168152602090f35b83915034610137578260031936011261013757610552610c5e565b602435906001600160a01b039061058c337f0000000000000000000000000000000000000000000000000000000000000000841614610f88565b16918215610639578284528360205284842054908282106105eb57508184957fddf252ad1be2c89b69c2b068fc378daa952ba7f163c4a11628f55a4df523b3ef936020938688528785520381872055816002540360025551908152a380f35b608490602087519162461bcd60e51b8352820152602260248201527f45524332303a206275726e20616d6f756e7420657863656564732062616c616e604482015261636560f01b6064820152fd5b608490602086519162461bcd60e51b8352820152602160248201527f45524332303a206275726e2066726f6d20746865207a65726f206164647265736044820152607360f81b6064820152fd5b838334610137578160031936011261013757805191809380549160019083821c9282851694851561077b575b60209586861081146107685785895290811561074457506001146106ec575b61013387876106e2828c0383610c8f565b5191829182610c15565b81529295507f8a35acfbc15ff81a39ae7d344fd709f28e8600b4aa8c65c6b64bfe7fe36bd19b5b8284106107315750505082610133946106e2928201019486806106d1565b8054868501880152928601928101610713565b60ff19168887015250505050151560051b83010192506106e28261013386806106d1565b634e487b7160e01b845260228352602484fd5b93607f16936106b2565b5050346101375760203660031901126101375760209181906001600160a01b036107ad610c5e565b1681526005845220549051908152f35b5050346101375760203660031901126101375760209181906001600160a01b036107e5610c5e565b16815280845220549051908152f35b919050346108e157806003193601126108e15761080f610c5e565b60243591906001600160a01b039061084a337f0000000000000000000000000000000000000000000000000000000000000000841614610f88565b1692831561089f57506020827fddf252ad1be2c89b69c2b068fc378daa952ba7f163c4a11628f55a4df523b3ef926108858795600254610cf5565b60025585855284835280852082815401905551908152a380f35b6020606492519162461bcd60e51b8352820152601f60248201527f45524332303a206d696e7420746f20746865207a65726f2061646472657373006044820152fd5b8280fd5b50503461013757806003193601126101375761044460209261092e610908610c5e565b338352600186528483206001600160a01b03821684528652918490205460243590610cf5565b9033610e86565b505034610137578160031936011261013757602090610952610fe6565b9051908152f35b5050346101375781600319360112610137576020905160ff7f0000000000000000000000000000000000000000000000000000000000000000168152f35b505034610137578160031936011261013757602090517f6e71edae12b1b97f4d1f60370fef10105fa2faae0126114a169c64845d6126c98152f35b83915034610137576060366003190112610137576109ee610c5e565b6109f6610c79565b91846044359460018060a01b038416815260016020528181203382526020522054906000198203610a30575b602086610444878787610d18565b848210610a595750918391610a4e6020969561044495033383610e86565b919394819350610a22565b606490602087519162461bcd60e51b8352820152601d60248201527f45524332303a20696e73756666696369656e7420616c6c6f77616e63650000006044820152fd5b505034610137578160031936011261013757602090517f8b73c3c69bb8fe3d512ecc4cf759cc79239f7b179b0ffacaa9a75d522b39400f8152f35b5050346101375781600319360112610137576020906002549051908152f35b505034610137578060031936011261013757602090610444610b16610c5e565b6024359033610e86565b92915034610c115783600319360112610c1157600354600181811c9186908281168015610c07575b6020958686108214610bf45750848852908115610bd25750600114610b79575b61013386866106e2828b0383610c8f565b929550600383527fc2575a0e9e593c00f959f8c92f12db2869c3395a3b0502d05e2516446f71f85b5b828410610bbf5750505082610133946106e2928201019438610b68565b8054868501880152928601928101610ba2565b60ff191687860152505050151560051b83010192506106e28261013338610b68565b634e487b7160e01b845260229052602483fd5b93607f1693610b48565b8380fd5b6020808252825181830181905290939260005b828110610c4a57505060409293506000838284010152601f8019910116010190565b818101860151848201604001528501610c28565b600435906001600160a01b0382168203610c7457565b600080fd5b602435906001600160a01b0382168203610c7457565b90601f8019910116810190811067ffffffffffffffff821117610cb157604052565b634e487b7160e01b600052604160045260246000fd5b604051906040820182811067ffffffffffffffff821117610cb15760405260018252603160f81b6020830152565b91908201809211610d0257565b634e487b7160e01b600052601160045260246000fd5b6001600160a01b03908116918215610e335716918215610de257600082815280602052604081205491808310610d8e57604082827fddf252ad1be2c89b69c2b068fc378daa952ba7f163c4a11628f55a4df523b3ef958760209652828652038282205586815220818154019055604051908152a3565b60405162461bcd60e51b815260206004820152602660248201527f45524332303a207472616e7366657220616d6f756e7420657863656564732062604482015265616c616e636560d01b6064820152608490fd5b60405162461bcd60e51b815260206004820152602360248201527f45524332303a207472616e7366657220746f20746865207a65726f206164647260448201526265737360e81b6064820152608490fd5b60405162461bcd60e51b815260206004820152602560248201527f45524332303a207472616e736665722066726f6d20746865207a65726f206164604482015264647265737360d81b6064820152608490fd5b6001600160a01b03908116918215610f375716918215610ee75760207f8c5be1e5ebec7d5bd14f71427d1e84f3dd0314c0f7b2291e5b200ac8c7c3b925918360005260018252604060002085600052825280604060002055604051908152a3565b60405162461bcd60e51b815260206004820152602260248201527f45524332303a20617070726f766520746f20746865207a65726f206164647265604482015261737360f01b6064820152608490fd5b60405162461bcd60e51b8152602060048201526024808201527f45524332303a20617070726f76652066726f6d20746865207a65726f206164646044820152637265737360e01b6064820152608490fd5b15610f8f57565b60405162461bcd60e51b815260206004820152602960248201527f546f6b656e577261707065643a3a6f6e6c794272696467653a204e6f7420456960448201526867656e42726964676560b81b6064820152608490fd5b6000467f00000000000000000000000000000000000000000000000000000000000000000361103457507f000000000000000000000000000000000000000000000000000000000000000090565b604051816003549160019183831c9083851693841561119c575b60209586841086146111885783855286850195859392918890821561116a575050600114611110575b5061108492500382610c8f565b51902091611090610cc7565b828151910120604051928301937f8b73c3c69bb8fe3d512ecc4cf759cc79239f7b179b0ffacaa9a75d522b39400f8552604084015260608301524660808301523060a083015260a0825260c082019082821067ffffffffffffffff8311176110fc575060405251902090565b634e487b7160e01b81526041600452602490fd5b6003885286915087907fc2575a0e9e593c00f959f8c92f12db2869c3395a3b0502d05e2516446f71f85b5b858310611152575050611084935082010138611077565b8054838801850152869450889390920191810161113b565b60ff1916885261108495151560051b85010192503891506110779050565b634e487b7160e01b88526022600452602488fd5b91607f169161104e56fea26469706673582212206497b6193bfc760d8ad0d3250ba9109556cda130f23126a679168c073a51062064736f6c63430008150033f3dafa2d67840338fba102c1484b3bdd3dcc1026a8a71015ac91cace86e46a5525308c93ceeed162da955b3f7ce3e3f93606579e40fb92029faa9efe27545983a2646970667358221220504d76960f0b2c395e4d15a9f00cb9155a47ba21a0d7c79ec7ab0d8d18dc02a264736f6c63430008150033","linkReferences":{}},"methodIdentifiers":{"bridgeAsset(uint32,address,uint256,address,bool,bytes)":"cd586579","bridgeMessage(uint32,address,bool,bytes)":"240ff378","claimAsset(bytes32[32],uint32,bytes32,bytes32,uint32,address,uint32,address,uint256,bytes)":"2cffd02e","claimMessage(bytes32[32],uint32,bytes32,bytes32,uint32,address,uint32,address,uint256,bytes)":"2d2c9d94","claimedBitMap(uint256)":"ee25560b","depositCount()":"2dfdf0b5","eigenZkVMaddress()":"a303f0f5","getDepositRoot()":"3ae05047","getLeafValue(uint8,uint32,address,uint32,address,uint256,bytes32)":"3e197043","getTokenWrappedAddress(uint32,address)":"22e95f2c","globalExitRootManager()":"d02103ca","initialize(uint32,address,address)":"647c576c","isClaimed(uint256)":"9e34070f","lastUpdatedDepositCount()":"be5831c7","networkID()":"bab161bf","precalculatedWrapperAddress(uint32,address,string,string,uint8)":"aaa13cc2","tokenInfoToWrappedToken(bytes32)":"81b1c174","updateGlobalExitRoot()":"79e2cf97","verifyMerkleProof(bytes32,bytes32[32],uint32,bytes32)":"fb570834","wrappedTokenToTokenInfo(address)":"318aee3d"},"id":44}