{"abi":[{"type":"constructor","inputs":[{"name":"name","type":"string","internalType":"string"},{"name":"symbol","type":"string","internalType":"string"},{"name":"initialAccount","type":"address","internalType":"address"},{"name":"initialBalance","type":"uint256","internalType":"uint256"}],"stateMutability":"payable"},{"type":"function","name":"DOMAIN_SEPARATOR","inputs":[],"outputs":[{"name":"","type":"bytes32","internalType":"bytes32"}],"stateMutability":"view"},{"type":"function","name":"EIP712DOMAIN_HASH","inputs":[],"outputs":[{"name":"","type":"bytes32","internalType":"bytes32"}],"stateMutability":"view"},{"type":"function","name":"NAME_HASH","inputs":[],"outputs":[{"name":"","type":"bytes32","internalType":"bytes32"}],"stateMutability":"view"},{"type":"function","name":"PERMIT_TYPEHASH","inputs":[],"outputs":[{"name":"","type":"bytes32","internalType":"bytes32"}],"stateMutability":"view"},{"type":"function","name":"VERSION_HASH","inputs":[],"outputs":[{"name":"","type":"bytes32","internalType":"bytes32"}],"stateMutability":"view"},{"type":"function","name":"allowance","inputs":[{"name":"owner","type":"address","internalType":"address"},{"name":"spender","type":"address","internalType":"address"}],"outputs":[{"name":"","type":"uint256","internalType":"uint256"}],"stateMutability":"view"},{"type":"function","name":"approve","inputs":[{"name":"spender","type":"address","internalType":"address"},{"name":"amount","type":"uint256","internalType":"uint256"}],"outputs":[{"name":"","type":"bool","internalType":"bool"}],"stateMutability":"nonpayable"},{"type":"function","name":"approveInternal","inputs":[{"name":"owner","type":"address","internalType":"address"},{"name":"spender","type":"address","internalType":"address"},{"name":"value","type":"uint256","internalType":"uint256"}],"outputs":[],"stateMutability":"nonpayable"},{"type":"function","name":"balanceOf","inputs":[{"name":"account","type":"address","internalType":"address"}],"outputs":[{"name":"","type":"uint256","internalType":"uint256"}],"stateMutability":"view"},{"type":"function","name":"burn","inputs":[{"name":"amount","type":"uint256","internalType":"uint256"}],"outputs":[],"stateMutability":"nonpayable"},{"type":"function","name":"decimals","inputs":[],"outputs":[{"name":"","type":"uint8","internalType":"uint8"}],"stateMutability":"view"},{"type":"function","name":"decreaseAllowance","inputs":[{"name":"spender","type":"address","internalType":"address"},{"name":"subtractedValue","type":"uint256","internalType":"uint256"}],"outputs":[{"name":"","type":"bool","internalType":"bool"}],"stateMutability":"nonpayable"},{"type":"function","name":"getChainId","inputs":[],"outputs":[{"name":"chainId","type":"uint256","internalType":"uint256"}],"stateMutability":"view"},{"type":"function","name":"increaseAllowance","inputs":[{"name":"spender","type":"address","internalType":"address"},{"name":"addedValue","type":"uint256","internalType":"uint256"}],"outputs":[{"name":"","type":"bool","internalType":"bool"}],"stateMutability":"nonpayable"},{"type":"function","name":"mint","inputs":[{"name":"account","type":"address","internalType":"address"},{"name":"amount","type":"uint256","internalType":"uint256"}],"outputs":[],"stateMutability":"nonpayable"},{"type":"function","name":"name","inputs":[],"outputs":[{"name":"","type":"string","internalType":"string"}],"stateMutability":"view"},{"type":"function","name":"nonces","inputs":[{"name":"","type":"address","internalType":"address"}],"outputs":[{"name":"","type":"uint256","internalType":"uint256"}],"stateMutability":"view"},{"type":"function","name":"permit","inputs":[{"name":"owner","type":"address","internalType":"address"},{"name":"spender","type":"address","internalType":"address"},{"name":"value","type":"uint256","internalType":"uint256"},{"name":"deadline","type":"uint256","internalType":"uint256"},{"name":"v","type":"uint8","internalType":"uint8"},{"name":"r","type":"bytes32","internalType":"bytes32"},{"name":"s","type":"bytes32","internalType":"bytes32"}],"outputs":[],"stateMutability":"nonpayable"},{"type":"function","name":"symbol","inputs":[],"outputs":[{"name":"","type":"string","internalType":"string"}],"stateMutability":"view"},{"type":"function","name":"totalSupply","inputs":[],"outputs":[{"name":"","type":"uint256","internalType":"uint256"}],"stateMutability":"view"},{"type":"function","name":"transfer","inputs":[{"name":"to","type":"address","internalType":"address"},{"name":"amount","type":"uint256","internalType":"uint256"}],"outputs":[{"name":"","type":"bool","internalType":"bool"}],"stateMutability":"nonpayable"},{"type":"function","name":"transferFrom","inputs":[{"name":"from","type":"address","internalType":"address"},{"name":"to","type":"address","internalType":"address"},{"name":"amount","type":"uint256","internalType":"uint256"}],"outputs":[{"name":"","type":"bool","internalType":"bool"}],"stateMutability":"nonpayable"},{"type":"function","name":"transferInternal","inputs":[{"name":"from","type":"address","internalType":"address"},{"name":"to","type":"address","internalType":"address"},{"name":"value","type":"uint256","internalType":"uint256"}],"outputs":[],"stateMutability":"nonpayable"},{"type":"event","name":"Approval","inputs":[{"name":"owner","type":"address","indexed":true,"internalType":"address"},{"name":"spender","type":"address","indexed":true,"internalType":"address"},{"name":"value","type":"uint256","indexed":false,"internalType":"uint256"}],"anonymous":false},{"type":"event","name":"Transfer","inputs":[{"name":"from","type":"address","indexed":true,"internalType":"address"},{"name":"to","type":"address","indexed":true,"internalType":"address"},{"name":"value","type":"uint256","indexed":false,"internalType":"uint256"}],"anonymous":false}],"bytecode":{"object":"0x60406080815262001463803803806200001881620003de565b9283398101608082820312620003d95781516001600160401b039290838111620003d957826200004a91830162000404565b926020928383015190828211620003d9576200006891840162000404565b828601516001600160a01b0381169390849003620003d95760600151918551818111620002e4576003918254926001928385811c95168015620003ce575b89861014620003b857601f948581116200036d575b5080898682116001146200030657600091620002fa575b5060001982841b1c191690841b1781555b8451918211620002e45760049485548481811c91168015620002d9575b8a821014620002c45785811162000279575b5088908584116001146200020e5793839491849260009562000202575b50501b92600019911b1c19161782555b8315620001c0575060025490828201809211620001ab5750836000927fddf252ad1be2c89b69c2b068fc378daa952ba7f163c4a11628f55a4df523b3ef926002558484528382528784208181540190558751908152a3815191012060065551610fec9081620004778239f35b601190634e487b7160e01b6000525260246000fd5b865162461bcd60e51b815291820185905260248201527f45524332303a206d696e7420746f20746865207a65726f206164647265737300604482015260649150fd5b0151935038806200012f565b9190601f1984169287600052848b6000209460005b8d8983831062000261575050501062000246575b50505050811b0182556200013f565b01519060f884600019921b161c191690553880808062000237565b86860151895590970196948501948893500162000223565b86600052896000208680860160051c8201928c8710620002ba575b0160051c019085905b828110620002ad57505062000112565b600081550185906200029d565b9250819262000294565b602287634e487b7160e01b6000525260246000fd5b90607f169062000100565b634e487b7160e01b600052604160045260246000fd5b90508a015138620000d2565b60008481528b81208794509190601f198416908d8f5b838310620003555750505083116200033c575b5050811b018155620000e3565b8c015160001983861b60f8161c1916905538806200032f565b840151855589969094019392830192018d8f6200031c565b82600052896000208680840160051c8201928c8510620003ae575b0160051c019085905b828110620003a1575050620000bb565b6000815501859062000391565b9250819262000388565b634e487b7160e01b600052602260045260246000fd5b94607f1694620000a6565b600080fd5b6040519190601f01601f191682016001600160401b03811183821017620002e457604052565b919080601f84011215620003d95782516001600160401b038111620002e4576020906200043a601f8201601f19168301620003de565b92818452828287010111620003d95760005b8181106200046257508260009394955001015290565b85810183015184820184015282016200044c56fe608060408181526004918236101561001657600080fd5b600092833560e01c91826304622c2e14610bb15750816306fdde0314610abc578163095ea7b314610a9257816318160ddd14610a73578163222f5be014610a5b57816323b872dd146109a257816330adf81f14610967578163313ce5671461094b5781633408e470146109305781633644e515146108e9578163395093511461089957816340c10f19146107da57816342966c68146106c357816356189cb4146106ab57816370a08231146106745781637ecebe001461063c57816395d89b41146105395781639e4e7318146104fe578163a457c2d714610456578163a9059cbb14610425578163c473af33146103ea578163d505accf1461016d575063dd62ed3e1461012257600080fd5b346101695780600319360112610169578060209261013e610c16565b610146610c31565b6001600160a01b0391821683526001865283832091168252845220549051908152f35b5080fd5b839150346101695760e036600319011261016957610189610c16565b610191610c31565b906044359260643560843560ff81168091036103e6574282106103a3576001600160a01b038481168089526005602052898920805491949293919291906000198414610390576001840190558a519160208301937f6e71edae12b1b97f4d1f60370fef10105fa2faae0126114a169c64845d6126c98552868d850152858a1660608501528a608085015260a084015260c083015260c0825260e082019167ffffffffffffffff938184108585111761037d57838d528151902092610277600654926102656101008201943090469087610f47565b0360ff198101835260df190182610c7c565b5190208b5192602084019161190160f01b8352602285015260428401526042835260808301938385109085111761036a57928a92608092602095838f5282519020835260a082015260a43560c082015260e060c43591015282805260015afa1561036057865116908115159182610356575b5050156102ff57506102fc939450610e45565b80f35b608490602087519162461bcd60e51b8352820152602b60248201527f48455a3a3a5f76616c69646174655369676e6564446174613a20494e56414c4960448201526a445f5349474e415455524560a81b6064820152fd5b14905087806102e9565b87513d88823e3d90fd5b634e487b7160e01b8b526041875260248bfd5b634e487b7160e01b8c526041885260248cfd5b634e487b7160e01b8b526011875260248bfd5b875162461bcd60e51b8152602081850152601960248201527f48455a3a3a7065726d69743a20415554485f45585049524544000000000000006044820152606490fd5b8680fd5b505034610169578160031936011261016957602090517f8b73c3c69bb8fe3d512ecc4cf759cc79239f7b179b0ffacaa9a75d522b39400f8152f35b50503461016957806003193601126101695760209061044f610445610c16565b6024359033610cd7565b5160018152f35b905082346104fb57826003193601126104fb57610471610c16565b918360243592338152600160205281812060018060a01b03861682526020522054908282106104aa5760208561044f8585038733610e45565b608490602086519162461bcd60e51b8352820152602560248201527f45524332303a2064656372656173656420616c6c6f77616e63652062656c6f77604482015264207a65726f60d81b6064820152fd5b80fd5b505034610169578160031936011261016957602090517fc89efdaa54c0f20c7adf612882df0950f5a951637e0307cdcb4c672f298b8bc68152f35b838334610169578160031936011261016957805191809380549160019083821c92828516948515610632575b602095868610811461061f578589529081156105fb57506001146105a3575b61059f8787610595828c0383610c7c565b5191829182610bcd565b0390f35b81529295507f8a35acfbc15ff81a39ae7d344fd709f28e8600b4aa8c65c6b64bfe7fe36bd19b5b8284106105e8575050508261059f9461059592820101948680610584565b80548685018801529286019281016105ca565b60ff19168887015250505050151560051b83010192506105958261059f8680610584565b634e487b7160e01b845260228352602484fd5b93607f1693610565565b5050346101695760203660031901126101695760209181906001600160a01b03610664610c16565b1681526005845220549051908152f35b5050346101695760203660031901126101695760209181906001600160a01b0361069c610c16565b16815280845220549051908152f35b83346104fb576102fc6106bd36610c47565b91610e45565b919050346107d657602090816003193601126107d25782359233156107875733855284835281852054908482106107395750917fddf252ad1be2c89b69c2b068fc378daa952ba7f163c4a11628f55a4df523b3ef918486959433875286845203818620558360025403600255519283523392a380f35b825162461bcd60e51b8152908101849052602260248201527f45524332303a206275726e20616d6f756e7420657863656564732062616c616e604482015261636560f01b6064820152608490fd5b82608492519162461bcd60e51b8352820152602160248201527f45524332303a206275726e2066726f6d20746865207a65726f206164647265736044820152607360f81b6064820152fd5b8380fd5b8280fd5b919050346107d657806003193601126107d6576107f5610c16565b6001600160a01b0316916024359190831561085757506020827fddf252ad1be2c89b69c2b068fc378daa952ba7f163c4a11628f55a4df523b3ef9261083d8795600254610cb4565b60025585855284835280852082815401905551908152a380f35b6020606492519162461bcd60e51b8352820152601f60248201527f45524332303a206d696e7420746f20746865207a65726f2061646472657373006044820152fd5b50503461016957806003193601126101695761044f6020926108e26108bc610c16565b338352600186528483206001600160a01b03821684528652918490205460243590610cb4565b9033610e45565b505034610169578160031936011261016957602090600654815161092681610918868201943090469087610f47565b03601f198101835282610c7c565b5190209051908152f35b50503461016957816003193601126101695760209051468152f35b5050346101695781600319360112610169576020905160128152f35b505034610169578160031936011261016957602090517f6e71edae12b1b97f4d1f60370fef10105fa2faae0126114a169c64845d6126c98152f35b905082346104fb57826109b436610c47565b6001600160a01b0383168552600160208181528587203388529052939094205493949093919282016109ef575b60208661044f878787610cd7565b848210610a185750918391610a0d6020969561044f95033383610e45565b9193948193506109e1565b606490602087519162461bcd60e51b8352820152601d60248201527f45524332303a20696e73756666696369656e7420616c6c6f77616e63650000006044820152fd5b83346104fb576102fc610a6d36610c47565b91610cd7565b5050346101695781600319360112610169576020906002549051908152f35b50503461016957806003193601126101695760209061044f610ab2610c16565b6024359033610e45565b919050346107d657826003193601126107d657805191836003549060019082821c928281168015610ba7575b6020958686108214610b945750848852908115610b725750600114610b19575b61059f8686610595828b0383610c7c565b929550600383527fc2575a0e9e593c00f959f8c92f12db2869c3395a3b0502d05e2516446f71f85b5b828410610b5f575050508261059f94610595928201019438610b08565b8054868501880152928601928101610b42565b60ff191687860152505050151560051b83010192506105958261059f38610b08565b634e487b7160e01b845260229052602483fd5b93607f1693610ae8565b8490346101695781600319360112610169576020906006548152f35b6020808252825181830181905290939260005b828110610c0257505060409293506000838284010152601f8019910116010190565b818101860151848201604001528501610be0565b600435906001600160a01b0382168203610c2c57565b600080fd5b602435906001600160a01b0382168203610c2c57565b6060906003190112610c2c576001600160a01b03906004358281168103610c2c57916024359081168103610c2c579060443590565b90601f8019910116810190811067ffffffffffffffff821117610c9e57604052565b634e487b7160e01b600052604160045260246000fd5b91908201809211610cc157565b634e487b7160e01b600052601160045260246000fd5b6001600160a01b03908116918215610df25716918215610da157600082815280602052604081205491808310610d4d57604082827fddf252ad1be2c89b69c2b068fc378daa952ba7f163c4a11628f55a4df523b3ef958760209652828652038282205586815220818154019055604051908152a3565b60405162461bcd60e51b815260206004820152602660248201527f45524332303a207472616e7366657220616d6f756e7420657863656564732062604482015265616c616e636560d01b6064820152608490fd5b60405162461bcd60e51b815260206004820152602360248201527f45524332303a207472616e7366657220746f20746865207a65726f206164647260448201526265737360e81b6064820152608490fd5b60405162461bcd60e51b815260206004820152602560248201527f45524332303a207472616e736665722066726f6d20746865207a65726f206164604482015264647265737360d81b6064820152608490fd5b6001600160a01b03908116918215610ef65716918215610ea65760207f8c5be1e5ebec7d5bd14f71427d1e84f3dd0314c0f7b2291e5b200ac8c7c3b925918360005260018252604060002085600052825280604060002055604051908152a3565b60405162461bcd60e51b815260206004820152602260248201527f45524332303a20617070726f766520746f20746865207a65726f206164647265604482015261737360f01b6064820152608490fd5b60405162461bcd60e51b8152602060048201526024808201527f45524332303a20617070726f76652066726f6d20746865207a65726f206164646044820152637265737360e01b6064820152608490fd5b7f8b73c3c69bb8fe3d512ecc4cf759cc79239f7b179b0ffacaa9a75d522b39400f815260208101919091527fc89efdaa54c0f20c7adf612882df0950f5a951637e0307cdcb4c672f298b8bc6604082015260608101919091526001600160a01b03909116608082015260a0019056fea264697066735822122089ead1bee1e7cce7d0c3598b3bef8986b81337e16c83dc2a6c41d38dcbf8f07d64736f6c63430008150033","linkReferences":{}},"methodIdentifiers":{"DOMAIN_SEPARATOR()":"3644e515","EIP712DOMAIN_HASH()":"c473af33","NAME_HASH()":"04622c2e","PERMIT_TYPEHASH()":"30adf81f","VERSION_HASH()":"9e4e7318","allowance(address,address)":"dd62ed3e","approve(address,uint256)":"095ea7b3","approveInternal(address,address,uint256)":"56189cb4","balanceOf(address)":"70a08231","burn(uint256)":"42966c68","decimals()":"313ce567","decreaseAllowance(address,uint256)":"a457c2d7","getChainId()":"3408e470","increaseAllowance(address,uint256)":"39509351","mint(address,uint256)":"40c10f19","name()":"06fdde03","nonces(address)":"7ecebe00","permit(address,address,uint256,uint256,uint8,bytes32,bytes32)":"d505accf","symbol()":"95d89b41","totalSupply()":"18160ddd","transfer(address,uint256)":"a9059cbb","transferFrom(address,address,uint256)":"23b872dd","transferInternal(address,address,uint256)":"222f5be0"},"id":61}