{"abi":[{"type":"constructor","inputs":[{"name":"_height","type":"uint256","internalType":"uint256"}],"stateMutability":"nonpayable"},{"type":"function","name":"add","inputs":[{"name":"leaf","type":"bytes32","internalType":"bytes32"}],"outputs":[],"stateMutability":"nonpayable"},{"type":"function","name":"calcBranches","inputs":[],"outputs":[],"stateMutability":"nonpayable"},{"type":"function","name":"dirty","inputs":[],"outputs":[{"name":"","type":"bool","internalType":"bool"}],"stateMutability":"view"},{"type":"function","name":"getProofTreeByIndex","inputs":[{"name":"index","type":"uint256","internalType":"uint256"}],"outputs":[{"name":"","type":"bytes32[32]","internalType":"bytes32[32]"}],"stateMutability":"view"},{"type":"function","name":"getRoot","inputs":[],"outputs":[{"name":"","type":"bytes32","internalType":"bytes32"}],"stateMutability":"view"},{"type":"function","name":"height","inputs":[],"outputs":[{"name":"","type":"uint256","internalType":"uint256"}],"stateMutability":"view"},{"type":"function","name":"tree","inputs":[{"name":"","type":"uint256","internalType":"uint256"},{"name":"","type":"uint256","internalType":"uint256"}],"outputs":[{"name":"","type":"bytes32","internalType":"bytes32"}],"stateMutability":"view"},{"type":"function","name":"verifyMerkleProof","inputs":[{"name":"leaf","type":"bytes32","internalType":"bytes32"},{"name":"proof","type":"bytes32[32]","internalType":"bytes32[32]"},{"name":"index","type":"uint32","internalType":"uint32"},{"name":"root","type":"bytes32","internalType":"bytes32"}],"outputs":[{"name":"","type":"bool","internalType":"bool"}],"stateMutability":"pure"},{"type":"function","name":"zeroHashes","inputs":[{"name":"","type":"uint256","internalType":"uint256"}],"outputs":[{"name":"","type":"bytes32","internalType":"bytes32"}],"stateMutability":"view"}],"bytecode":{"object":"0x6080604090808252346101df5780610c64803803809161001f8285610215565b83396020928391810103126101df57516001918282111561019c5760008281558080526002808352858220829055855192828488016001600160401b03811186821017610188578852600a8552697a65726f48617368657360b01b828601528751848382019163104c13eb60e21b8352602497858983015280519081604484015286845b83811061017057505050906100d560648284868381999784010152601f80199101168101036044810184520182610215565b51906a636f6e736f6c652e6c6f675afa508380528282526100f888852054610238565b86905b8682111561011b578860ff1960035416600355516109f090816102748239f35b8851838101918083528a820152898152610134816101e4565b51902090808552838352818986205561014c82610238565b600019811461015d578701906100fb565b634e487b7160e01b855260116004528585fd5b828101820151858201606401528a95508891016100a3565b634e487b7160e01b85526041600452602485fd5b60649084519062461bcd60e51b82526004820152601f60248201527f4d5420686569676874206973206e6f742067726561746572207468616e2031006044820152fd5b600080fd5b606081019081106001600160401b038211176101ff57604052565b634e487b7160e01b600052604160045260246000fd5b601f909101601f19168101906001600160401b038211908210176101ff57604052565b6000809160405160208101916327b7cf8560e01b8352602482015260248152610260816101e4565b51906a636f6e736f6c652e6c6f675afa5056fe608060408181526004918236101561001657600080fd5b600090813560e01c9081630ef267431461064c575080631a5a38ff1461045c578063446bffba146104235780635ca1e165146103ff57806378c2d335146103ba5780637ac54767146103925780637dce0fd01461036e57806389861413146101bd5763fb5708341461008757600080fd5b346101ba576104603660031901126101ba5736604312156101ba5781516100ad816106c6565b610424813682116101b6576024905b8282106101a6575050359363ffffffff85168095036101a25764010000000085101561016757355b602080841015610158579061012f9160018088871c16146000146101355761010c85856107bc565b519186519182019283528682015285815261012681610694565b5190209261074b565b916100e4565b61013f85856107bc565b5186519182019283528682015285815261012681610694565b60208286519061044435148152f35b606490602085519162461bcd60e51b83528201526015602482015274496e646578206973206f7574206f662072616e676560581b6044820152fd5b8280fd5b81358152602091820191016100bc565b8380fd5b80fd5b50823461036a576020806003193601126101a2578351936101dd856106c6565b610400809536903760039261023360ff85541661022d8185516101ff816106e3565b601c81527f67657450726f6f66547265654279496e6465782064697274793a2576000000008882015261080d565b15610770565b84548381116103285782519594610249876106c6565b87368837859083355b8383106102855750505050505192839092905b828210610270578585f35b82806001928651815201940191019092610265565b9697966001908082168203610315576000198101908111610302576102e1915b848b52808952878b20548210156102ea57848b528089526102c882898d20610666565b905490851b1c6102d8868c6107bc565b525b1c9261074b565b91979697610252565b60028952878b20546102fc868c6107bc565b526102da565b634e487b7160e01b8a526011865260248afd5b818101809111610302576102e1916102a5565b5082606492519162461bcd60e51b8352820152601e60248201527f54726565206865696768742069732067726561746572207468616e20333200006044820152fd5b5080fd5b50903461036a578160031936011261036a5760209060ff6003541690519015158152f35b5091346101a25760203660031901126101a25760209282913581526002845220549051908152f35b50346101ba57816003193601126101ba576024359235815260016020528181209081548410156101ba57506020926103f191610666565b91905490519160031b1c8152f35b50903461036a578160031936011261036a5760209061041c610867565b9051908152f35b509190346101a25760203660031901126101a25761045991600160ff196003541617600355838052600160205235908320610721565b80f35b50346101ba57806003193601126101ba5760039260ff8454161561060957815b82548110156105fd576001808201908183116105ea5782855260208181528686205490865b8281106104bb5750505050506104b69061074b565b61047c565b858899929394959699528483526104d481838a20610666565b9054908b1b1c8582018083116105d757858110156105c6576104fe908b8b52878652848b20610666565b9054908c1b1c5b878a52868552838a205483881c908110610574575061054a91888b52878652848b20918551908782019283528682015285815261054181610694565b51902090610721565b6002810180911161056157979493929190976104a1565b634e487b7160e01b885260118752602488fd5b906105c1926105a8918651908882019283528782015286815261059681610694565b51902091898c52888752858c20610666565b90919082549060031b91821b91600019901b1916179055565b61054a565b508989526002845282892054610505565b634e487b7160e01b8a526011895260248afd5b634e487b7160e01b855260118452602485fd5b845460ff191685558280f35b606490602084519162461bcd60e51b8352820152601760248201527f4e6f206368616e67657320746f2063616c63756c6174650000000000000000006044820152fd5b90503461036a578160031936011261036a57602091548152f35b805482101561067e5760005260206000200190600090565b634e487b7160e01b600052603260045260246000fd5b6060810190811067ffffffffffffffff8211176106b057604052565b634e487b7160e01b600052604160045260246000fd5b610400810190811067ffffffffffffffff8211176106b057604052565b6040810190811067ffffffffffffffff8211176106b057604052565b90601f8019910116810190811067ffffffffffffffff8211176106b057604052565b90815491680100000000000000008310156106b057826105a891600161074995018155610666565b565b600019811461075a5760010190565b634e487b7160e01b600052601160045260246000fd5b1561077757565b60405162461bcd60e51b815260206004820152601f60248201527f506c656173652063616c63756c617465206272616e63686573206669727374006044820152606490fd5b90602081101561067e5760051b0190565b919082519283825260005b8481106107f9575050826000602080949584010152601f8019910116010190565b6020818301810151848301820152016107d8565b600091908291610854604051809261083e602083019563c3b5563560e01b87526040602485015260648401906107cd565b901515604483015203601f1981018352826106ff565b51906a636f6e736f6c652e6c6f675afa50565b60ff60035416604061089e81519261087e846106e3565b6008845261022d81602095673234b93a3c9d12bb60c11b8782015261080d565b60009081548083526001845281832054156108dd5782526001835281208054156108c9578152205490565b634e487b7160e01b82526032600452602482fd5b60001981019081116109a657908291825260028452808220548151858101918083528382015282815261090f81610694565b5190209381519161091f836106e3565b60088352670c0b0c081c9bdbdd60c21b828401528380825161096a8161095c8782019863104c13eb60e21b8a5288602484015260448301906107cd565b03601f1981018352826106ff565b516a636f6e736f6c652e6c6f6795865afa50516327b7cf8560e01b9181019182526024808201879052815261099e81610694565b51915afa5090565b634e487b7160e01b83526011600452602483fdfea26469706673582212209a2d15e882bbc0b00c40ce6e096c496f2ce72a25d902f89be963958df2d6d8dc64736f6c63430008150033","linkReferences":{}},"methodIdentifiers":{"add(bytes32)":"446bffba","calcBranches()":"1a5a38ff","dirty()":"7dce0fd0","getProofTreeByIndex(uint256)":"89861413","getRoot()":"5ca1e165","height()":"0ef26743","tree(uint256,uint256)":"78c2d335","verifyMerkleProof(bytes32,bytes32[32],uint32,bytes32)":"fb570834","zeroHashes(uint256)":"7ac54767"},"id":57}