{"abi":[{"type":"constructor","inputs":[{"name":"name","type":"string","internalType":"string"},{"name":"symbol","type":"string","internalType":"string"},{"name":"__decimals","type":"uint8","internalType":"uint8"}],"stateMutability":"nonpayable"},{"type":"function","name":"DOMAIN_SEPARATOR","inputs":[],"outputs":[{"name":"","type":"bytes32","internalType":"bytes32"}],"stateMutability":"view"},{"type":"function","name":"DOMAIN_TYPEHASH","inputs":[],"outputs":[{"name":"","type":"bytes32","internalType":"bytes32"}],"stateMutability":"view"},{"type":"function","name":"PERMIT_TYPEHASH","inputs":[],"outputs":[{"name":"","type":"bytes32","internalType":"bytes32"}],"stateMutability":"view"},{"type":"function","name":"VERSION","inputs":[],"outputs":[{"name":"","type":"string","internalType":"string"}],"stateMutability":"view"},{"type":"function","name":"allowance","inputs":[{"name":"owner","type":"address","internalType":"address"},{"name":"spender","type":"address","internalType":"address"}],"outputs":[{"name":"","type":"uint256","internalType":"uint256"}],"stateMutability":"view"},{"type":"function","name":"approve","inputs":[{"name":"spender","type":"address","internalType":"address"},{"name":"amount","type":"uint256","internalType":"uint256"}],"outputs":[{"name":"","type":"bool","internalType":"bool"}],"stateMutability":"nonpayable"},{"type":"function","name":"balanceOf","inputs":[{"name":"account","type":"address","internalType":"address"}],"outputs":[{"name":"","type":"uint256","internalType":"uint256"}],"stateMutability":"view"},{"type":"function","name":"bridgeAddress","inputs":[],"outputs":[{"name":"","type":"address","internalType":"address"}],"stateMutability":"view"},{"type":"function","name":"burn","inputs":[{"name":"account","type":"address","internalType":"address"},{"name":"value","type":"uint256","internalType":"uint256"}],"outputs":[],"stateMutability":"nonpayable"},{"type":"function","name":"decimals","inputs":[],"outputs":[{"name":"","type":"uint8","internalType":"uint8"}],"stateMutability":"view"},{"type":"function","name":"decreaseAllowance","inputs":[{"name":"spender","type":"address","internalType":"address"},{"name":"subtractedValue","type":"uint256","internalType":"uint256"}],"outputs":[{"name":"","type":"bool","internalType":"bool"}],"stateMutability":"nonpayable"},{"type":"function","name":"deploymentChainId","inputs":[],"outputs":[{"name":"","type":"uint256","internalType":"uint256"}],"stateMutability":"view"},{"type":"function","name":"increaseAllowance","inputs":[{"name":"spender","type":"address","internalType":"address"},{"name":"addedValue","type":"uint256","internalType":"uint256"}],"outputs":[{"name":"","type":"bool","internalType":"bool"}],"stateMutability":"nonpayable"},{"type":"function","name":"mint","inputs":[{"name":"to","type":"address","internalType":"address"},{"name":"value","type":"uint256","internalType":"uint256"}],"outputs":[],"stateMutability":"nonpayable"},{"type":"function","name":"name","inputs":[],"outputs":[{"name":"","type":"string","internalType":"string"}],"stateMutability":"view"},{"type":"function","name":"nonces","inputs":[{"name":"","type":"address","internalType":"address"}],"outputs":[{"name":"","type":"uint256","internalType":"uint256"}],"stateMutability":"view"},{"type":"function","name":"permit","inputs":[{"name":"owner","type":"address","internalType":"address"},{"name":"spender","type":"address","internalType":"address"},{"name":"value","type":"uint256","internalType":"uint256"},{"name":"deadline","type":"uint256","internalType":"uint256"},{"name":"v","type":"uint8","internalType":"uint8"},{"name":"r","type":"bytes32","internalType":"bytes32"},{"name":"s","type":"bytes32","internalType":"bytes32"}],"outputs":[],"stateMutability":"nonpayable"},{"type":"function","name":"symbol","inputs":[],"outputs":[{"name":"","type":"string","internalType":"string"}],"stateMutability":"view"},{"type":"function","name":"totalSupply","inputs":[],"outputs":[{"name":"","type":"uint256","internalType":"uint256"}],"stateMutability":"view"},{"type":"function","name":"transfer","inputs":[{"name":"to","type":"address","internalType":"address"},{"name":"amount","type":"uint256","internalType":"uint256"}],"outputs":[{"name":"","type":"bool","internalType":"bool"}],"stateMutability":"nonpayable"},{"type":"function","name":"transferFrom","inputs":[{"name":"from","type":"address","internalType":"address"},{"name":"to","type":"address","internalType":"address"},{"name":"amount","type":"uint256","internalType":"uint256"}],"outputs":[{"name":"","type":"bool","internalType":"bool"}],"stateMutability":"nonpayable"},{"type":"event","name":"Approval","inputs":[{"name":"owner","type":"address","indexed":true,"internalType":"address"},{"name":"spender","type":"address","indexed":true,"internalType":"address"},{"name":"value","type":"uint256","indexed":false,"internalType":"uint256"}],"anonymous":false},{"type":"event","name":"Transfer","inputs":[{"name":"from","type":"address","indexed":true,"internalType":"address"},{"name":"to","type":"address","indexed":true,"internalType":"address"},{"name":"value","type":"uint256","indexed":false,"internalType":"uint256"}],"anonymous":false}],"bytecode":{"object":"0x6101006040908082523462000479576200173280380380916200002382856200047e565b83398101606082820312620004795781516001600160401b03939084811162000479578262000054918501620004a2565b92602092838201518681116200047957839162000073918401620004a2565b91015160ff8116810362000479578451948686116200039957600395806200009c885462000518565b92601f9384811162000424575b508790848311600114620003bb57600092620003af575b50508160011b9160001990891b1c19161786555b82519087821162000399578190600494620000f0865462000518565b82811162000342575b5087918311600114620002d957600092620002cd575b50508160011b9160001990881b1c19161782555b3360c05260e05246608052815184549490600081620001428862000518565b9182825287820194600199898b82169182600014620002ad57505060011462000268575b5062000175925003826200047e565b519020938251838101818110888211176200025357908591855282815201603160f81b8152208251938401947f8b73c3c69bb8fe3d512ecc4cf759cc79239f7b179b0ffacaa9a75d522b39400f86528385015260608401524660808401523060a084015260a0835260c0830194838610908611176200023e575083905251902060a0526111dc90816200055682396080518181816103f70152610feb015260a05181611012015260c051818181610508015281816105650152610823015260e051816109730152f35b604190634e487b7160e01b6000525260246000fd5b604184634e487b7160e01b6000525260246000fd5b915050600052818680600020896000915b858310620002935750506200017593508201013862000166565b809192945054838588010152019101879089859362000279565b60ff191688526200017595151560051b8501019250389150620001669050565b0151905038806200010f565b60008681528881209350601f198516905b898282106200032b57505090846001959493921062000312575b505050811b01825562000123565b0151600019838a1b60f8161c1916905538808062000304565b6001859682939686015181550195019301620002ea565b9091925085600052876000208380860160051c8201928a87106200038f575b94869594939291940160051c01905b8181106200037f5750620000f9565b6000815585945060010162000370565b9250819262000361565b634e487b7160e01b600052604160045260246000fd5b015190503880620000c0565b60008a81528981209350601f198516905b8a8282106200040d575050908460019594939210620003f4575b505050811b018655620000d4565b0151600019838b1b60f8161c19169055388080620003e6565b6001859682939686015181550195019301620003cc565b90915060008981528881208580860160051c8201938b87106200046f575b908695949392910160051c01915b82811062000460575050620000a9565b81815585945060010162000450565b9350819362000442565b600080fd5b601f909101601f19168101906001600160401b038211908210176200039957604052565b919080601f84011215620004795782516001600160401b038111620003995760209060405192620004dd83601f19601f85011601856200047e565b818452828287010111620004795760005b8181106200050457508260009394955001015290565b8581018301518482018401528201620004ee565b90600182811c921680156200054a575b60208310146200053457565b634e487b7160e01b600052602260045260246000fd5b91607f16916200052856fe608060408181526004918236101561001657600080fd5b600092833560e01c91826306fdde0314610b2057508163095ea7b314610af657816318160ddd14610ad757816320606b7014610a9c57816323b872dd146109d257816330adf81f14610997578163313ce567146109595781633644e5151461093557816339509351146108e557816340c10f19146107f457816370a08231146107bd5781637ecebe001461078557816395d89b41146106865781639dc29fac14610537578163a3c573eb146104f3578163a457c2d71461044b578163a9059cbb1461041a578163cd0d0096146103df578163d505accf1461018357508063dd62ed3e1461013b5763ffa1ad741461010c57600080fd5b3461013757816003193601126101375761013390610128610cc7565b905191829182610c15565b0390f35b5080fd5b503461013757806003193601126101375780602092610158610c5e565b610160610c79565b6001600160a01b0391821683526001865283832091168252845220549051908152f35b839150346101375760e03660031901126101375761019f610c5e565b6101a7610c79565b90604435926064356084359060ff82168092036103db5780421161038c576001600160a01b0384811680895260056020528989208054919492939291906000198214610379576001820190558a519260208401917f6e71edae12b1b97f4d1f60370fef10105fa2faae0126114a169c64845d6126c98352868d860152858a1660608601528a608086015260a085015260c084015260c0835260e083019267ffffffffffffffff9381811085821117610366578c5251902090610267610fe6565b8b5192602084019161190160f01b8352602285015260428401526042835260808301938385109085111761035357928a92608092602095838f5282519020835260a082015260a43560c082015260e060c43591015282805260015afa156103495786511690811515918261033f575b5050156102ec57506102e9939450610e86565b80f35b608490602087519162461bcd60e51b8352820152602760248201527f546f6b656e577261707065643a3a7065726d69743a20496e76616c6964207369604482015266676e617475726560c81b6064820152fd5b14905087806102d6565b87513d88823e3d90fd5b634e487b7160e01b8b526041875260248bfd5b634e487b7160e01b8c526041885260248cfd5b634e487b7160e01b8b526011875260248bfd5b875162461bcd60e51b81526020818501526024808201527f546f6b656e577261707065643a3a7065726d69743a20457870697265642070656044820152631c9b5a5d60e21b6064820152608490fd5b8680fd5b505034610137578160031936011261013757602090517f00000000000000000000000000000000000000000000000000000000000000008152f35b50503461013757806003193601126101375760209061044461043a610c5e565b6024359033610d18565b5160018152f35b905082346104f057826003193601126104f057610466610c5e565b918360243592338152600160205281812060018060a01b038616825260205220549082821061049f576020856104448585038733610e86565b608490602086519162461bcd60e51b8352820152602560248201527f45524332303a2064656372656173656420616c6c6f77616e63652062656c6f77604482015264207a65726f60d81b6064820152fd5b80fd5b505034610137578160031936011261013757517f00000000000000000000000000000000000000000000000000000000000000006001600160a01b03168152602090f35b83915034610137578260031936011261013757610552610c5e565b602435906001600160a01b039061058c337f0000000000000000000000000000000000000000000000000000000000000000841614610f88565b16918215610639578284528360205284842054908282106105eb57508184957fddf252ad1be2c89b69c2b068fc378daa952ba7f163c4a11628f55a4df523b3ef936020938688528785520381872055816002540360025551908152a380f35b608490602087519162461bcd60e51b8352820152602260248201527f45524332303a206275726e20616d6f756e7420657863656564732062616c616e604482015261636560f01b6064820152fd5b608490602086519162461bcd60e51b8352820152602160248201527f45524332303a206275726e2066726f6d20746865207a65726f206164647265736044820152607360f81b6064820152fd5b838334610137578160031936011261013757805191809380549160019083821c9282851694851561077b575b60209586861081146107685785895290811561074457506001146106ec575b61013387876106e2828c0383610c8f565b5191829182610c15565b81529295507f8a35acfbc15ff81a39ae7d344fd709f28e8600b4aa8c65c6b64bfe7fe36bd19b5b8284106107315750505082610133946106e2928201019486806106d1565b8054868501880152928601928101610713565b60ff19168887015250505050151560051b83010192506106e28261013386806106d1565b634e487b7160e01b845260228352602484fd5b93607f16936106b2565b5050346101375760203660031901126101375760209181906001600160a01b036107ad610c5e565b1681526005845220549051908152f35b5050346101375760203660031901126101375760209181906001600160a01b036107e5610c5e565b16815280845220549051908152f35b919050346108e157806003193601126108e15761080f610c5e565b60243591906001600160a01b039061084a337f0000000000000000000000000000000000000000000000000000000000000000841614610f88565b1692831561089f57506020827fddf252ad1be2c89b69c2b068fc378daa952ba7f163c4a11628f55a4df523b3ef926108858795600254610cf5565b60025585855284835280852082815401905551908152a380f35b6020606492519162461bcd60e51b8352820152601f60248201527f45524332303a206d696e7420746f20746865207a65726f2061646472657373006044820152fd5b8280fd5b50503461013757806003193601126101375761044460209261092e610908610c5e565b338352600186528483206001600160a01b03821684528652918490205460243590610cf5565b9033610e86565b505034610137578160031936011261013757602090610952610fe6565b9051908152f35b5050346101375781600319360112610137576020905160ff7f0000000000000000000000000000000000000000000000000000000000000000168152f35b505034610137578160031936011261013757602090517f6e71edae12b1b97f4d1f60370fef10105fa2faae0126114a169c64845d6126c98152f35b83915034610137576060366003190112610137576109ee610c5e565b6109f6610c79565b91846044359460018060a01b038416815260016020528181203382526020522054906000198203610a30575b602086610444878787610d18565b848210610a595750918391610a4e6020969561044495033383610e86565b919394819350610a22565b606490602087519162461bcd60e51b8352820152601d60248201527f45524332303a20696e73756666696369656e7420616c6c6f77616e63650000006044820152fd5b505034610137578160031936011261013757602090517f8b73c3c69bb8fe3d512ecc4cf759cc79239f7b179b0ffacaa9a75d522b39400f8152f35b5050346101375781600319360112610137576020906002549051908152f35b505034610137578060031936011261013757602090610444610b16610c5e565b6024359033610e86565b92915034610c115783600319360112610c1157600354600181811c9186908281168015610c07575b6020958686108214610bf45750848852908115610bd25750600114610b79575b61013386866106e2828b0383610c8f565b929550600383527fc2575a0e9e593c00f959f8c92f12db2869c3395a3b0502d05e2516446f71f85b5b828410610bbf5750505082610133946106e2928201019438610b68565b8054868501880152928601928101610ba2565b60ff191687860152505050151560051b83010192506106e28261013338610b68565b634e487b7160e01b845260229052602483fd5b93607f1693610b48565b8380fd5b6020808252825181830181905290939260005b828110610c4a57505060409293506000838284010152601f8019910116010190565b818101860151848201604001528501610c28565b600435906001600160a01b0382168203610c7457565b600080fd5b602435906001600160a01b0382168203610c7457565b90601f8019910116810190811067ffffffffffffffff821117610cb157604052565b634e487b7160e01b600052604160045260246000fd5b604051906040820182811067ffffffffffffffff821117610cb15760405260018252603160f81b6020830152565b91908201809211610d0257565b634e487b7160e01b600052601160045260246000fd5b6001600160a01b03908116918215610e335716918215610de257600082815280602052604081205491808310610d8e57604082827fddf252ad1be2c89b69c2b068fc378daa952ba7f163c4a11628f55a4df523b3ef958760209652828652038282205586815220818154019055604051908152a3565b60405162461bcd60e51b815260206004820152602660248201527f45524332303a207472616e7366657220616d6f756e7420657863656564732062604482015265616c616e636560d01b6064820152608490fd5b60405162461bcd60e51b815260206004820152602360248201527f45524332303a207472616e7366657220746f20746865207a65726f206164647260448201526265737360e81b6064820152608490fd5b60405162461bcd60e51b815260206004820152602560248201527f45524332303a207472616e736665722066726f6d20746865207a65726f206164604482015264647265737360d81b6064820152608490fd5b6001600160a01b03908116918215610f375716918215610ee75760207f8c5be1e5ebec7d5bd14f71427d1e84f3dd0314c0f7b2291e5b200ac8c7c3b925918360005260018252604060002085600052825280604060002055604051908152a3565b60405162461bcd60e51b815260206004820152602260248201527f45524332303a20617070726f766520746f20746865207a65726f206164647265604482015261737360f01b6064820152608490fd5b60405162461bcd60e51b8152602060048201526024808201527f45524332303a20617070726f76652066726f6d20746865207a65726f206164646044820152637265737360e01b6064820152608490fd5b15610f8f57565b60405162461bcd60e51b815260206004820152602960248201527f546f6b656e577261707065643a3a6f6e6c794272696467653a204e6f7420456960448201526867656e42726964676560b81b6064820152608490fd5b6000467f00000000000000000000000000000000000000000000000000000000000000000361103457507f000000000000000000000000000000000000000000000000000000000000000090565b604051816003549160019183831c9083851693841561119c575b60209586841086146111885783855286850195859392918890821561116a575050600114611110575b5061108492500382610c8f565b51902091611090610cc7565b828151910120604051928301937f8b73c3c69bb8fe3d512ecc4cf759cc79239f7b179b0ffacaa9a75d522b39400f8552604084015260608301524660808301523060a083015260a0825260c082019082821067ffffffffffffffff8311176110fc575060405251902090565b634e487b7160e01b81526041600452602490fd5b6003885286915087907fc2575a0e9e593c00f959f8c92f12db2869c3395a3b0502d05e2516446f71f85b5b858310611152575050611084935082010138611077565b8054838801850152869450889390920191810161113b565b60ff1916885261108495151560051b85010192503891506110779050565b634e487b7160e01b88526022600452602488fd5b91607f169161104e56fea26469706673582212206497b6193bfc760d8ad0d3250ba9109556cda130f23126a679168c073a51062064736f6c63430008150033","linkReferences":{}},"methodIdentifiers":{"DOMAIN_SEPARATOR()":"3644e515","DOMAIN_TYPEHASH()":"20606b70","PERMIT_TYPEHASH()":"30adf81f","VERSION()":"ffa1ad74","allowance(address,address)":"dd62ed3e","approve(address,uint256)":"095ea7b3","balanceOf(address)":"70a08231","bridgeAddress()":"a3c573eb","burn(address,uint256)":"9dc29fac","decimals()":"313ce567","decreaseAllowance(address,uint256)":"a457c2d7","deploymentChainId()":"cd0d0096","increaseAllowance(address,uint256)":"39509351","mint(address,uint256)":"40c10f19","name()":"06fdde03","nonces(address)":"7ecebe00","permit(address,address,uint256,uint256,uint8,bytes32,bytes32)":"d505accf","symbol()":"95d89b41","totalSupply()":"18160ddd","transfer(address,uint256)":"a9059cbb","transferFrom(address,address,uint256)":"23b872dd"},"id":60}