{"abi":[{"type":"function","name":"verifyTx","inputs":[{"name":"proof","type":"tuple","internalType":"struct Verifier.Proof","components":[{"name":"a","type":"tuple","internalType":"struct Pairing.G1Point","components":[{"name":"X","type":"uint256","internalType":"uint256"},{"name":"Y","type":"uint256","internalType":"uint256"}]},{"name":"b","type":"tuple","internalType":"struct Pairing.G2Point","components":[{"name":"X","type":"uint256[2]","internalType":"uint256[2]"},{"name":"Y","type":"uint256[2]","internalType":"uint256[2]"}]},{"name":"c","type":"tuple","internalType":"struct Pairing.G1Point","components":[{"name":"X","type":"uint256","internalType":"uint256"},{"name":"Y","type":"uint256","internalType":"uint256"}]}]},{"name":"input","type":"uint256[1]","internalType":"uint256[1]"}],"outputs":[{"name":"r","type":"bool","internalType":"bool"}],"stateMutability":"view"}],"bytecode":{"object":"0x6080806040523461001657610d73908161001c8239f35b600080fdfe6080604052600436101561001257600080fd5b6000803560e01c63f48d77291461002857600080fd5b346100cd57366003190161012081126100d057610100136100cd5761004b6100ea565b906100553661016f565b825260803660431901126100cd5761006b61010f565b610074366101f2565b815261007f3661022f565b6020820152602083015261009236610198565b60408301523661012312156100cd576100c96100b7836100b1366101bc565b90610360565b60405190151581529081906020820190565b0390f35b80fd5b5080fd5b634e487b7160e01b600052604160045260246000fd5b604051906060820182811067ffffffffffffffff82111761010a57604052565b6100d4565b604051906040820182811067ffffffffffffffff82111761010a57604052565b604051906020820182811067ffffffffffffffff82111761010a57604052565b6040519060a0820182811067ffffffffffffffff82111761010a57604052565b60409060031901126101935761018361010f565b9060043582526024356020830152565b600080fd5b60409060c3190112610193576101ac61010f565b9060c435825260e4356020830152565b906101c561012f565b918261012491821161019357610104905b8282106101e257505050565b81358152602091820191016101d6565b80606312156101935761020361010f565b90816084918211610193576044905b82821061021f5750505090565b8135815260209182019101610212565b8060a312156101935761024061010f565b908160c4918211610193576084905b82821061025c5750505090565b813581526020918201910161024f565b67ffffffffffffffff811161010a5760051b60200190565b9061028e8261026c565b60405190601f1990601f018116820167ffffffffffffffff81118382101761010a576040528382526102c0829461026c565b0190602036910137565b634e487b7160e01b600052601160045260246000fd5b60001981146102ef5760010190565b6102ca565b634e487b7160e01b600052603260045260246000fd5b8051156103175760200190565b6102f4565b8051600110156103175760400190565b8051600210156103175760600190565b8051600310156103175760800190565b80518210156103175760209160051b010190565b61036861010f565b6001928382526020368184013760005b8481106103985750509061038b91610405565b6103925790565b50600090565b806103b39160051b8301516103ad828661034c565b526102e0565b610378565b90600182018092116102ef57565b90600282018092116102ef57565b90600382018092116102ef57565b90600482018092116102ef57565b90600582018092116102ef57565b1561019357565b9190916104106109e9565b9161041b82516103b8565b9061042d6080850192835151146103fe565b61043561010f565b6000815260006020820152946000955b84518710156104c5576104b96104bf9161048a7f30644e72e131a029b85045b68181585d2833e84879b9709143e1f593f00000016104838b8a61034c565b51106103fe565b6104b36104a1875161049b8c6103b8565b9061034c565b516104ac8b8a61034c565b519061063d565b906105d0565b966102e0565b95610445565b6105299592965061052594506104df6104e692945161030a565b51906105d0565b8251926104f7602082015192610537565b90610509604080860151920151610537565b91606085015193602061051c8751610537565b96015196610732565b1590565b61053257600090565b600190565b6000602061054361010f565b8281520152805115806105b4575b61059d5760208151917f30644e72e131a029b85045b68181585d97816a916871ca8d3c208c16d87cfd4791829101510681039081116102ef5761059261010f565b918252602082015290565b506105a661010f565b600081526000602082015290565b50602081015115610551565b6105c861012f565b906020368337565b91906105da61010f565b60008152600060208201528093604051608081019181831067ffffffffffffffff84111761010a576060946020809260c0956040526080368637805185520151828401528051604084015201518482015260066107cf195a01fa1561063b57565bfe5b606090929192608061064d61010f565b916000835260006020840152829560206106656100ea565b92863685378051845201516020830152604082015260076107cf195a01fa1561063b57565b61069261014f565b6004815290600082815b608081106106a957505050565b6020906106b461010f565b84815282858183015282850101520161069c565b6106d06100ea565b6002815290600082815b604081106106e757505050565b6020906106f261010f565b8481528285818301528285010152016106da565b61070e61010f565b9061071761010f565b6040368237825261072661010f565b60403682376020830152565b9796939492919561074161068a565b9561074a61014f565b976004895260005b608081106108085750610805999a6107698961030a565b526107738861030a565b5061077d8861031c565b526107878761031c565b506107918761032c565b5261079b8661032c565b506107a58661033c565b526107af8561033c565b506107b98661030a565b526107c38561030a565b506107cd8561031c565b526107d78461031c565b506107e18461032c565b526107eb8361032c565b506107f58361033c565b526107ff8261033c565b50610835565b90565b602090610813610706565b82828d01015201610752565b906006820291808304600614901517156102ef57565b8051610843835182146103fe565b61084c8161081f565b9261085684610284565b9260005b838110610898575050505060209182916108726105c0565b93849260051b910160086107cf195a01fa801561063b57610892906103fe565b51151590565b806108a6610982928461034c565b51516108ba6108b48361081f565b8861034c565b526020806108c8838661034c565b5101516108e56108df6108da8561081f565b6103b8565b8961034c565b526108fb6108f3838761034c565b515160200190565b516109106108df61090b8561081f565b6103c6565b5261091b828661034c565b5151516109326108df61092d8561081f565b6103d4565b5261094a81610941848861034c565b51015160200190565b5161095f6108df61095a8561081f565b6103e2565b5261096a828661034c565b510151516103ad6108b461097d8461081f565b6103f0565b61085a565b6040519060a0820182811067ffffffffffffffff82111761010a5760405260606080836109b261010f565b600081526000602082015281526109c7610706565b60208201526109d4610706565b60408201526109e1610706565b838201520152565b6109f1610987565b90610d3a6109fd61010f565b7f286cd17282af60cd2295fe74102e263890d3f520e66cb7272426b9e33ad6dc2681526020907f015b0439f72dd97fd07dec5b86314bb06649a69faee911d3b9f51e122f057224828201528452610a5261010f565b7f01bc2d0e1b058937a707d4554e9d2e26a44eaafbbf2933a3f2068cf6866520bf81527f1c44531f30ab63540164d6a11411841f7c845a58b180f69ffa15295be319e82d82820152610aa261010f565b7f148d6010a8956aa2bdc30562b02883e2675e4d005de5d20f4dce773217e9c51681527f1bb933d3051ebfd0bb38d1ed1312777ac2f65bc69896ad8b5422299b2169dd8383820152610af261010f565b9182528282015281850152610b0561010f565b7e29f2aa65ed44f30bbe6b29c4e7aee173d6b29bded770184bb6a45a7328cbb281527f21e67773eea4fe317bc2521b0e3e46ae3d6ae8d12325a8482e62d3e26d99b47882820152610b5461010f565b7f0f5e5c4e2d6ad50f39334553aba65f4c03ed0f710eb227fe3ee8a0a508a9203381527f0165cb21465ccf2d320a94ce7356be1f42871c5ba5370952ace3ff76c6baab6a83820152610ba461010f565b918252828201526040850152610bb861010f565b7f187e4b6e20ff76e3bb84dd72b8ee9d0f1c26de600dbee716f6a25dd53ee6a92481527f021ef001f16908023b3bad33c83004f6e281d367e45a16acba40c340a2da524682820152610c0861010f565b7f2240a5532ccf19f1df460a49fd8fef835d52ae6d4dbea7ff978cf2231a59087981527f26f930b580037b594fbe5eb8527e03ffbcd4f0c70b2077f0757acaf3356835fe83820152610c5861010f565b918252828201526060850152610c6c6106c8565b60808501908152610cd8610c7e61010f565b7f08e7628b53d973750e52b28fb4f697879294cfa8843744bbe4569d76848ef13a81527f0ccbdf5308fa160229c6bfea4a1be78dca12ec6e05c564fbc889f3fbc8981d1184820152825190610cd28261030a565b5261030a565b507f27b22f17fe29d3725a5e0acf97a97be1da8bf21d5ea25f62de06def24bce7856610d0261010f565b927f03d66c72cdec7209ee63f01f40e08acf8e9a97a9a3a271f82174f0d6c2d2478c84528301525190610d348261031c565b5261031c565b5056fea26469706673582212207868538ce56149e8bccdc6b5251a4d267f7d7bcbb56c0d458f774ea07634abed64736f6c63430008150033","linkReferences":{}},"methodIdentifiers":{"verifyTx(((uint256,uint256),(uint256[2],uint256[2]),(uint256,uint256)),uint256[1])":"f48d7729"},"id":62}